{
  "_format": "hh3-artifact-1",
  "contractName": "FlowHub",
  "sourceName": "contracts/FlowHub.sol",
  "abi": [
    {
      "inputs": [
        {
          "internalType": "address",
          "name": "_endpoint",
          "type": "address"
        },
        {
          "internalType": "uint32",
          "name": "_flowEid",
          "type": "uint32"
        }
      ],
      "stateMutability": "nonpayable",
      "type": "constructor"
    },
    {
      "anonymous": false,
      "inputs": [
        {
          "indexed": true,
          "internalType": "uint256",
          "name": "companyId",
          "type": "uint256"
        },
        {
          "indexed": false,
          "internalType": "bytes32",
          "name": "payloadHash",
          "type": "bytes32"
        },
        {
          "indexed": false,
          "internalType": "uint256",
          "name": "userId",
          "type": "uint256"
        },
        {
          "indexed": false,
          "internalType": "uint256",
          "name": "workspaceId",
          "type": "uint256"
        },
        {
          "indexed": false,
          "internalType": "uint32",
          "name": "dstEid",
          "type": "uint32"
        },
        {
          "indexed": false,
          "internalType": "uint64",
          "name": "nonce",
          "type": "uint64"
        }
      ],
      "name": "BlockMirrorInitiated",
      "type": "event"
    },
    {
      "anonymous": false,
      "inputs": [
        {
          "indexed": true,
          "internalType": "uint256",
          "name": "companyId",
          "type": "uint256"
        },
        {
          "indexed": true,
          "internalType": "address",
          "name": "owner",
          "type": "address"
        },
        {
          "indexed": false,
          "internalType": "bool",
          "name": "hasOwnChain",
          "type": "bool"
        },
        {
          "indexed": false,
          "internalType": "uint32",
          "name": "dstEid",
          "type": "uint32"
        },
        {
          "indexed": false,
          "internalType": "string",
          "name": "metaURI",
          "type": "string"
        }
      ],
      "name": "CompanyRegistered",
      "type": "event"
    },
    {
      "anonymous": false,
      "inputs": [
        {
          "indexed": true,
          "internalType": "uint256",
          "name": "companyId",
          "type": "uint256"
        },
        {
          "indexed": false,
          "internalType": "bytes32",
          "name": "payloadHash",
          "type": "bytes32"
        },
        {
          "indexed": false,
          "internalType": "uint32",
          "name": "dstEid",
          "type": "uint32"
        },
        {
          "indexed": false,
          "internalType": "bool",
          "name": "ok",
          "type": "bool"
        },
        {
          "indexed": false,
          "internalType": "bytes32",
          "name": "dstTxHash",
          "type": "bytes32"
        },
        {
          "indexed": false,
          "internalType": "uint64",
          "name": "nonce",
          "type": "uint64"
        }
      ],
      "name": "MirrorAcked",
      "type": "event"
    },
    {
      "inputs": [],
      "name": "FLOW_EID",
      "outputs": [
        {
          "internalType": "uint32",
          "name": "",
          "type": "uint32"
        }
      ],
      "stateMutability": "view",
      "type": "function"
    },
    {
      "inputs": [
        {
          "internalType": "uint256",
          "name": "",
          "type": "uint256"
        }
      ],
      "name": "companies",
      "outputs": [
        {
          "internalType": "address",
          "name": "owner",
          "type": "address"
        },
        {
          "internalType": "bool",
          "name": "hasOwnChain",
          "type": "bool"
        },
        {
          "internalType": "uint32",
          "name": "dstEid",
          "type": "uint32"
        },
        {
          "internalType": "string",
          "name": "metaURI",
          "type": "string"
        },
        {
          "internalType": "bool",
          "name": "exists",
          "type": "bool"
        }
      ],
      "stateMutability": "view",
      "type": "function"
    },
    {
      "inputs": [],
      "name": "endpoint",
      "outputs": [
        {
          "internalType": "contract ILayerZeroEndpointV2",
          "name": "",
          "type": "address"
        }
      ],
      "stateMutability": "view",
      "type": "function"
    },
    {
      "inputs": [
        {
          "components": [
            {
              "internalType": "uint32",
              "name": "srcEid",
              "type": "uint32"
            },
            {
              "internalType": "bytes32",
              "name": "sender",
              "type": "bytes32"
            },
            {
              "internalType": "uint64",
              "name": "nonce",
              "type": "uint64"
            }
          ],
          "internalType": "struct LZTypes.Origin",
          "name": "origin",
          "type": "tuple"
        },
        {
          "internalType": "bytes32",
          "name": "guid",
          "type": "bytes32"
        },
        {
          "internalType": "bytes",
          "name": "message",
          "type": "bytes"
        },
        {
          "internalType": "address",
          "name": "",
          "type": "address"
        },
        {
          "internalType": "bytes",
          "name": "",
          "type": "bytes"
        }
      ],
      "name": "lzReceive",
      "outputs": [],
      "stateMutability": "nonpayable",
      "type": "function"
    },
    {
      "inputs": [],
      "name": "owner",
      "outputs": [
        {
          "internalType": "address",
          "name": "",
          "type": "address"
        }
      ],
      "stateMutability": "view",
      "type": "function"
    },
    {
      "inputs": [
        {
          "internalType": "uint32",
          "name": "",
          "type": "uint32"
        }
      ],
      "name": "peers",
      "outputs": [
        {
          "internalType": "bytes32",
          "name": "",
          "type": "bytes32"
        }
      ],
      "stateMutability": "view",
      "type": "function"
    },
    {
      "inputs": [
        {
          "internalType": "uint256",
          "name": "companyId",
          "type": "uint256"
        },
        {
          "internalType": "bytes32",
          "name": "payloadHash",
          "type": "bytes32"
        },
        {
          "internalType": "uint256",
          "name": "userId",
          "type": "uint256"
        },
        {
          "internalType": "uint256",
          "name": "workspaceId",
          "type": "uint256"
        },
        {
          "internalType": "uint64",
          "name": "nonce",
          "type": "uint64"
        },
        {
          "internalType": "bytes",
          "name": "lzOptions",
          "type": "bytes"
        }
      ],
      "name": "pushBlock",
      "outputs": [],
      "stateMutability": "payable",
      "type": "function"
    },
    {
      "inputs": [
        {
          "internalType": "uint256",
          "name": "companyId",
          "type": "uint256"
        },
        {
          "internalType": "address",
          "name": "companyOwner",
          "type": "address"
        },
        {
          "internalType": "bool",
          "name": "hasOwnChain",
          "type": "bool"
        },
        {
          "internalType": "uint32",
          "name": "dstEid",
          "type": "uint32"
        },
        {
          "internalType": "string",
          "name": "metaURI",
          "type": "string"
        }
      ],
      "name": "registerCompany",
      "outputs": [],
      "stateMutability": "nonpayable",
      "type": "function"
    },
    {
      "inputs": [
        {
          "internalType": "bytes32",
          "name": "",
          "type": "bytes32"
        }
      ],
      "name": "seenPayload",
      "outputs": [
        {
          "internalType": "bool",
          "name": "",
          "type": "bool"
        }
      ],
      "stateMutability": "view",
      "type": "function"
    },
    {
      "inputs": [
        {
          "internalType": "uint32",
          "name": "eid",
          "type": "uint32"
        },
        {
          "internalType": "bytes32",
          "name": "peer",
          "type": "bytes32"
        }
      ],
      "name": "setPeer",
      "outputs": [],
      "stateMutability": "nonpayable",
      "type": "function"
    },
    {
      "inputs": [
        {
          "internalType": "address payable",
          "name": "to",
          "type": "address"
        }
      ],
      "name": "withdraw",
      "outputs": [],
      "stateMutability": "nonpayable",
      "type": "function"
    }
  ],
  "bytecode": "0x60a060405234801561000f575f80fd5b506040516112ad3803806112ad83398101604081905261002e9161006a565b5f8054336001600160a01b031991821617909155600180549091166001600160a01b03939093169290921790915563ffffffff166080526100b5565b5f806040838503121561007b575f80fd5b82516001600160a01b0381168114610091575f80fd5b602084015190925063ffffffff811681146100aa575f80fd5b809150509250929050565b6080516111d96100d45f395f8181610232015261094e01526111d95ff3fe60806040526004361061009a575f3560e01c80635e280f11116100625780635e280f11146101745780636396fd0b146101ab5780638da5cb5b146101ca578063bb0b6a53146101e8578063be830b6a14610221578063d4497c3614610269575f80fd5b806313137d651461009e5780632813d19d146100bf5780633400288b146100f857806351cff8d914610117578063535f3a0d14610136575b5f80fd5b3480156100a9575f80fd5b506100bd6100b8366004610bff565b61027c565b005b3480156100ca575f80fd5b506100de6100d9366004610c9e565b610477565b6040516100ef959493929190610cf8565b60405180910390f35b348015610103575f80fd5b506100bd610112366004610d5b565b610545565b348015610122575f80fd5b506100bd610131366004610d83565b610586565b348015610141575f80fd5b50610164610150366004610c9e565b60046020525f908152604090205460ff1681565b60405190151581526020016100ef565b34801561017f575f80fd5b50600154610193906001600160a01b031681565b6040516001600160a01b0390911681526020016100ef565b3480156101b6575f80fd5b506100bd6101c5366004610db4565b6105e5565b3480156101d5575f80fd5b505f54610193906001600160a01b031681565b3480156101f3575f80fd5b50610213610202366004610e30565b60036020525f908152604090205481565b6040519081526020016100ef565b34801561022c575f80fd5b506102547f000000000000000000000000000000000000000000000000000000000000000081565b60405163ffffffff90911681526020016100ef565b6100bd610277366004610e5e565b6107ab565b6001546001600160a01b031633146102ca5760405162461bcd60e51b815260206004820152600c60248201526b1b9bdd08195b991c1bda5b9d60a21b60448201526064015b60405180910390fd5b5f6003816102db60208b018b610e30565b63ffffffff1663ffffffff1681526020019081526020015f2054036103305760405162461bcd60e51b815260206004820152600b60248201526a756e6b6e6f776e2073726360a81b60448201526064016102c1565b5f80808080610341898b018b610ec2565b9398509196509450925090505f61035b60208e018e610e30565b6040805163ffffffff909216602083015281018d9052606081018790526080810186905267ffffffffffffffff831660a082015260c00160408051601f1981840301815291815281516020928301205f818152600490935291205490915060ff16156103cc5750505050505061046e565b600160045f8381526020019081526020015f205f6101000a81548160ff021916908315150217905550857f3c9d5f83e35fb474067d57a6e8a96661a600d2a5f621a67919a72cfe26252b03868f5f01602081019061042a9190610e30565b6040805192835263ffffffff9091166020830152871515908201526060810186905267ffffffffffffffff8516608082015260a00160405180910390a25050505050505b50505050505050565b60026020525f9081526040902080546001820180546001600160a01b03831693600160a01b840460ff1693600160a81b900463ffffffff169290916104bb90610f12565b80601f01602080910402602001604051908101604052809291908181526020018280546104e790610f12565b80156105325780601f1061050957610100808354040283529160200191610532565b820191905f5260205f20905b81548152906001019060200180831161051557829003601f168201915b5050506002909301549192505060ff1685565b5f546001600160a01b0316331461056e5760405162461bcd60e51b81526004016102c190610f4a565b63ffffffff9091165f90815260036020526040902055565b5f546001600160a01b031633146105af5760405162461bcd60e51b81526004016102c190610f4a565b6040516001600160a01b038216904780156108fc02915f818181858888f193505050501580156105e1573d5f803e3d5ffd5b5050565b5f546001600160a01b0316331461060e5760405162461bcd60e51b81526004016102c190610f4a565b5f868152600260208190526040909120015460ff16156106595760405162461bcd60e51b815260206004820152600660248201526565786973747360d01b60448201526064016102c1565b6040518060a00160405280866001600160a01b0316815260200185151581526020018463ffffffff16815260200183838080601f0160208091040260200160405190810160405280939291908181526020018383808284375f9201829052509385525050600160209384018190528a83526002845260409283902085518154958701519487015163ffffffff16600160a81b0263ffffffff60a81b19951515600160a01b026001600160a81b03199097166001600160a01b03909216919091179590951793909316939093178255506060830151909182019061073c9082610fcd565b50608091909101516002909101805460ff19169115159190911790556040516001600160a01b0386169087907f411f7831c1e835080f74648240bd90ed5addc0bae62a9ca854496dc77c41690a9061079b90889088908890889061108d565b60405180910390a3505050505050565b5f878152600260209081526040808320815160a08101835281546001600160a01b0381168252600160a01b810460ff16151594820194909452600160a81b90930463ffffffff169183019190915260018101805460608401919061080e90610f12565b80601f016020809104026020016040519081016040528092919081815260200182805461083a90610f12565b80156108855780601f1061085c57610100808354040283529160200191610885565b820191905f5260205f20905b81548152906001019060200180831161086857829003601f168201915b50505091835250506002919091015460ff16151560209091015260808101519091506108de5760405162461bcd60e51b8152602060048201526008602482015267636f6d70616e793f60c01b60448201526064016102c1565b80516001600160a01b03163314806108ff57505f546001600160a01b031633145b61093c5760405162461bcd60e51b815260206004820152600e60248201526d1b9bdd08185d5d1a1bdc9a5e995960921b60448201526064016102c1565b80602001516109c957604080518881527f000000000000000000000000000000000000000000000000000000000000000063ffffffff1660208201526001818301525f606082015267ffffffffffffffff86166080820152905189917f3c9d5f83e35fb474067d57a6e8a96661a600d2a5f621a67919a72cfe26252b03919081900360a00190a25061046e565b60408082015163ffffffff165f9081526003602052205480610a155760405162461bcd60e51b8152602060048201526005602482015264706565723f60d81b60448201526064016102c1565b60408051602081018b9052908101899052606081018890526080810187905267ffffffffffffffff861660a08201525f9060c00160405160208183030381529060405290505f6040518060a00160405280856040015163ffffffff16815260200184815260200183815260200187878080601f0160208091040260200160405190810160405280939291908181526020018383808284375f92018290525093855250505060209182015260408681015181518e81529283018d90528282018c905263ffffffff16606083015267ffffffffffffffff8a166080830152519192508c917f583e717269e82acb8af601cbc760e6d8eadb8add437c6ca358d5ed141cd67cca9181900360a00190a2600154604051637970d8fb60e01b81526001600160a01b0390911690637970d8fb903490610b5590859033906004016110d1565b604080518083038185885af1158015610b70573d5f803e3d5ffd5b50505050506040513d601f19601f82011682018060405250810190610b95919061114f565b505050505050505050505050565b5f8083601f840112610bb3575f80fd5b50813567ffffffffffffffff811115610bca575f80fd5b602083019150836020828501011115610be1575f80fd5b9250929050565b6001600160a01b0381168114610bfc575f80fd5b50565b5f805f805f805f87890360e0811215610c16575f80fd5b6060811215610c23575f80fd5b5087965060608801359550608088013567ffffffffffffffff80821115610c48575f80fd5b610c548b838c01610ba3565b909750955060a08a01359150610c6982610be8565b90935060c08901359080821115610c7e575f80fd5b50610c8b8a828b01610ba3565b989b979a50959850939692959293505050565b5f60208284031215610cae575f80fd5b5035919050565b5f81518084525f5b81811015610cd957602081850181015186830182015201610cbd565b505f602082860101526020601f19601f83011685010191505092915050565b6001600160a01b0386168152841515602082015263ffffffff8416604082015260a0606082018190525f90610d2f90830185610cb5565b905082151560808301529695505050505050565b803563ffffffff81168114610d56575f80fd5b919050565b5f8060408385031215610d6c575f80fd5b610d7583610d43565b946020939093013593505050565b5f60208284031215610d93575f80fd5b8135610d9e81610be8565b9392505050565b80358015158114610d56575f80fd5b5f805f805f8060a08789031215610dc9575f80fd5b863595506020870135610ddb81610be8565b9450610de960408801610da5565b9350610df760608801610d43565b9250608087013567ffffffffffffffff811115610e12575f80fd5b610e1e89828a01610ba3565b979a9699509497509295939492505050565b5f60208284031215610e40575f80fd5b610d9e82610d43565b67ffffffffffffffff81168114610bfc575f80fd5b5f805f805f805f60c0888a031215610e74575f80fd5b873596506020880135955060408801359450606088013593506080880135610e9b81610e49565b925060a088013567ffffffffffffffff811115610eb6575f80fd5b610c8b8a828b01610ba3565b5f805f805f60a08688031215610ed6575f80fd5b8535945060208601359350610eed60408701610da5565b9250606086013591506080860135610f0481610e49565b809150509295509295909350565b600181811c90821680610f2657607f821691505b602082108103610f4457634e487b7160e01b5f52602260045260245ffd5b50919050565b6020808252600990820152683737ba1037bbb732b960b91b604082015260600190565b634e487b7160e01b5f52604160045260245ffd5b601f821115610fc857805f5260205f20601f840160051c81016020851015610fa65750805b601f840160051c820191505b81811015610fc5575f8155600101610fb2565b50505b505050565b815167ffffffffffffffff811115610fe757610fe7610f6d565b610ffb81610ff58454610f12565b84610f81565b602080601f83116001811461102e575f84156110175750858301515b5f19600386901b1c1916600185901b178555611085565b5f85815260208120601f198616915b8281101561105c5788860151825594840194600190910190840161103d565b508582101561107957878501515f19600388901b60f8161c191681555b505060018460011b0185555b505050505050565b841515815263ffffffff8416602082015260606040820152816060820152818360808301375f818301608090810191909152601f909201601f191601019392505050565b6040815263ffffffff8351166040820152602083015160608201525f604084015160a0608084015261110660e0840182610cb5565b90506060850151603f198483030160a08501526111238282610cb5565b608096909601516001600160a01b0390811660c086015294909416602090930192909252509192915050565b5f6040828403121561115f575f80fd5b6040516040810181811067ffffffffffffffff8211171561118257611182610f6d565b60405282518152602083015161119781610e49565b6020820152939250505056fea26469706673582212203dee416546207074bf4feb7b37f72e6a1669bfb27783b6c3d239ba308de4764964736f6c63430008180033",
  "linkReferences": {},
  "deployedLinkReferences": {},
  "immutableReferences": {
    "24": [
      {
        "length": 32,
        "start": 562
      },
      {
        "length": 32,
        "start": 2382
      }
    ]
  },
  "inputSourceName": "project/contracts/FlowHub.sol",
  "buildInfoId": "solc-0_8_24-4b1b45a0ae404438a2ac451d0484d0761e82f60e"
}