{"project/contracts/SpokeOApp.sol":{"SpokeOApp":{"abi":[{"inputs":[{"internalType":"address","name":"_endpoint","type":"address"},{"internalType":"uint32","name":"_eid","type":"uint32"}],"stateMutability":"nonpayable","type":"constructor"},{"anonymous":false,"inputs":[{"indexed":true,"internalType":"uint256","name":"companyId","type":"uint256"},{"indexed":false,"internalType":"bytes32","name":"payloadHash","type":"bytes32"},{"indexed":false,"internalType":"uint32","name":"srcEid","type":"uint32"},{"indexed":false,"internalType":"bytes32","name":"dstTxHash","type":"bytes32"},{"indexed":false,"internalType":"uint64","name":"nonce","type":"uint64"}],"name":"BlockMirrored","type":"event"},{"inputs":[],"name":"LOCAL_EID","outputs":[{"internalType":"uint32","name":"","type":"uint32"}],"stateMutability":"view","type":"function"},{"inputs":[],"name":"endpoint","outputs":[{"internalType":"contract ILayerZeroEndpointV2","name":"","type":"address"}],"stateMutability":"view","type":"function"},{"inputs":[{"internalType":"uint32","name":"","type":"uint32"}],"name":"hubs","outputs":[{"internalType":"bytes32","name":"","type":"bytes32"}],"stateMutability":"view","type":"function"},{"inputs":[{"components":[{"internalType":"uint32","name":"srcEid","type":"uint32"},{"internalType":"bytes32","name":"sender","type":"bytes32"},{"internalType":"uint64","name":"nonce","type":"uint64"}],"internalType":"struct LZTypes.Origin","name":"origin","type":"tuple"},{"internalType":"bytes32","name":"guid","type":"bytes32"},{"internalType":"bytes","name":"message","type":"bytes"},{"internalType":"address","name":"","type":"address"},{"internalType":"bytes","name":"","type":"bytes"}],"name":"lzReceive","outputs":[],"stateMutability":"nonpayable","type":"function"},{"inputs":[],"name":"owner","outputs":[{"internalType":"address","name":"","type":"address"}],"stateMutability":"view","type":"function"},{"inputs":[{"internalType":"bytes32","name":"","type":"bytes32"}],"name":"seenPayload","outputs":[{"internalType":"bool","name":"","type":"bool"}],"stateMutability":"view","type":"function"},{"inputs":[{"internalType":"uint32","name":"srcEid","type":"uint32"},{"internalType":"bytes32","name":"hub","type":"bytes32"}],"name":"setHub","outputs":[],"stateMutability":"nonpayable","type":"function"},{"inputs":[{"internalType":"address payable","name":"to","type":"address"}],"name":"withdraw","outputs":[],"stateMutability":"nonpayable","type":"function"}],"evm":{"bytecode":{"linkReferences":{},"object":"60a060405234801561000f575f80fd5b506040516109b53803806109b583398101604081905261002e9161006a565b5f8054336001600160a01b031991821617909155600180549091166001600160a01b03939093169290921790915563ffffffff166080526100b5565b5f806040838503121561007b575f80fd5b82516001600160a01b0381168114610091575f80fd5b602084015190925063ffffffff811681146100aa575f80fd5b809150509250929050565b6080516108e86100cd5f395f61016a01526108e85ff3fe608060405234801561000f575f80fd5b5060043610610085575f3560e01c806353d603351161005857806353d60335146100fb5780635e280f11146101285780638da5cb5b14610153578063f368ce2114610165575f80fd5b806313137d65146100895780634efb08ce1461009e57806351cff8d9146100b1578063535f3a0d146100c4575b5f80fd5b61009c610097366004610602565b6101a1565b005b61009c6100ac3660046106b9565b6104ce565b61009c6100bf3660046106e1565b61052b565b6100e66100d2366004610703565b60036020525f908152604090205460ff1681565b60405190151581526020015b60405180910390f35b61011a61010936600461071a565b60026020525f908152604090205481565b6040519081526020016100f2565b60015461013b906001600160a01b031681565b6040516001600160a01b0390911681526020016100f2565b5f5461013b906001600160a01b031681565b61018c7f000000000000000000000000000000000000000000000000000000000000000081565b60405163ffffffff90911681526020016100f2565b6001546001600160a01b031633146101ef5760405162461bcd60e51b815260206004820152600c60248201526b1b9bdd08195b991c1bda5b9d60a21b60448201526064015b60405180910390fd5b5f6101fd602089018961071a565b63ffffffff81165f90815260026020526040902054909150806102505760405162461bcd60e51b815260206004820152600b60248201526a756e6b6e6f776e2073726360a81b60448201526064016101e6565b808960200135146102905760405162461bcd60e51b815260206004820152600a6024820152693130b21039b2b73232b960b11b60448201526064016101e6565b5f808061029f898b018b610748565b94505050925092505f858c8585856040516020016102f195949392919063ffffffff95909516855260208501939093526040840191909152606083015267ffffffffffffffff16608082015260a00190565b60408051601f1981840301815291815281516020928301205f818152600390935291205490915060ff161561032b575050505050506104c5565b5f818152600360209081526040808320805460ff191660011790558051439281019290925281018690526060810185905260800160408051808303601f19018152828252805160209182012087845263ffffffff8b1691840191909152301890820181905267ffffffffffffffff85166060830152915085907f10ef118d1307c29677cbf769f6754397c80e78adda7f133373a816867c3d19b49060800160405180910390a26040805160208101879052908101859052600160608201526080810182905267ffffffffffffffff841660a08201525f9060c00160408051808303601f1901815260a08301825263ffffffff8b16835260208084018b9052838301829052825190810183525f8082526060850191909152608084018190526001549251637970d8fb60e01b81529194506001600160a01b0390921691637970d8fb9161047b9185916004016107d4565b60408051808303815f875af1158015610496573d5f803e3d5ffd5b505050506040513d601f19601f820116820180604052508101906104ba9190610852565b505050505050505050505b50505050505050565b5f546001600160a01b031633146105135760405162461bcd60e51b81526020600482015260096024820152683737ba1037bbb732b960b91b60448201526064016101e6565b63ffffffff9091165f90815260026020526040902055565b5f546001600160a01b031633146105705760405162461bcd60e51b81526020600482015260096024820152683737ba1037bbb732b960b91b60448201526064016101e6565b6040516001600160a01b038216904780156108fc02915f818181858888f193505050501580156105a2573d5f803e3d5ffd5b5050565b5f8083601f8401126105b6575f80fd5b50813567ffffffffffffffff8111156105cd575f80fd5b6020830191508360208285010111156105e4575f80fd5b9250929050565b6001600160a01b03811681146105ff575f80fd5b50565b5f805f805f805f87890360e0811215610619575f80fd5b6060811215610626575f80fd5b5087965060608801359550608088013567ffffffffffffffff8082111561064b575f80fd5b6106578b838c016105a6565b909750955060a08a0135915061066c826105eb565b90935060c08901359080821115610681575f80fd5b5061068e8a828b016105a6565b989b979a50959850939692959293505050565b803563ffffffff811681146106b4575f80fd5b919050565b5f80604083850312156106ca575f80fd5b6106d3836106a1565b946020939093013593505050565b5f602082840312156106f1575f80fd5b81356106fc816105eb565b9392505050565b5f60208284031215610713575f80fd5b5035919050565b5f6020828403121561072a575f80fd5b6106fc826106a1565b67ffffffffffffffff811681146105ff575f80fd5b5f805f805f60a0868803121561075c575f80fd5b85359450602086013593506040860135925060608601359150608086013561078381610733565b809150509295509295909350565b5f81518084525f5b818110156107b557602081850181015186830182015201610799565b505f602082860101526020601f19601f83011685010191505092915050565b6040815263ffffffff8351166040820152602083015160608201525f604084015160a0608084015261080960e0840182610791565b90506060850151603f198483030160a08501526108268282610791565b608096909601516001600160a01b0390811660c086015294909416602090930192909252509192915050565b5f60408284031215610862575f80fd5b6040516040810181811067ffffffffffffffff8211171561089157634e487b7160e01b5f52604160045260245ffd5b6040528251815260208301516108a681610733565b6020820152939250505056fea26469706673582212209eb52b87191c713792c7c6fdc22f42c0cb07fd350d580cce0d77e3fdc896374f64736f6c63430008180033","opcodes":"PUSH1 0xA0 PUSH1 0x40 MSTORE CALLVALUE DUP1 ISZERO PUSH2 0xF JUMPI PUSH0 DUP1 REVERT JUMPDEST POP PUSH1 0x40 MLOAD PUSH2 0x9B5 CODESIZE SUB DUP1 PUSH2 0x9B5 DUP4 CODECOPY DUP2 ADD PUSH1 0x40 DUP2 SWAP1 MSTORE PUSH2 0x2E SWAP2 PUSH2 0x6A JUMP JUMPDEST PUSH0 DUP1 SLOAD CALLER PUSH1 0x1 PUSH1 0x1 PUSH1 0xA0 SHL SUB NOT SWAP2 DUP3 AND OR SWAP1 SWAP2 SSTORE PUSH1 0x1 DUP1 SLOAD SWAP1 SWAP2 AND PUSH1 0x1 PUSH1 0x1 PUSH1 0xA0 SHL SUB SWAP4 SWAP1 SWAP4 AND SWAP3 SWAP1 SWAP3 OR SWAP1 SWAP2 SSTORE PUSH4 0xFFFFFFFF AND PUSH1 0x80 MSTORE PUSH2 0xB5 JUMP JUMPDEST PUSH0 DUP1 PUSH1 0x40 DUP4 DUP6 SUB SLT ISZERO PUSH2 0x7B JUMPI PUSH0 DUP1 REVERT JUMPDEST DUP3 MLOAD PUSH1 0x1 PUSH1 0x1 PUSH1 0xA0 SHL SUB DUP2 AND DUP2 EQ PUSH2 0x91 JUMPI PUSH0 DUP1 REVERT JUMPDEST PUSH1 0x20 DUP5 ADD MLOAD SWAP1 SWAP3 POP PUSH4 0xFFFFFFFF DUP2 AND DUP2 EQ PUSH2 0xAA JUMPI PUSH0 DUP1 REVERT JUMPDEST DUP1 SWAP2 POP POP SWAP3 POP SWAP3 SWAP1 POP JUMP JUMPDEST PUSH1 0x80 MLOAD PUSH2 0x8E8 PUSH2 0xCD PUSH0 CODECOPY PUSH0 PUSH2 0x16A ADD MSTORE PUSH2 0x8E8 PUSH0 RETURN INVALID PUSH1 0x80 PUSH1 0x40 MSTORE CALLVALUE DUP1 ISZERO PUSH2 0xF JUMPI PUSH0 DUP1 REVERT JUMPDEST POP PUSH1 0x4 CALLDATASIZE LT PUSH2 0x85 JUMPI PUSH0 CALLDATALOAD PUSH1 0xE0 SHR DUP1 PUSH4 0x53D60335 GT PUSH2 0x58 JUMPI DUP1 PUSH4 0x53D60335 EQ PUSH2 0xFB JUMPI DUP1 PUSH4 0x5E280F11 EQ PUSH2 0x128 JUMPI DUP1 PUSH4 0x8DA5CB5B EQ PUSH2 0x153 JUMPI DUP1 PUSH4 0xF368CE21 EQ PUSH2 0x165 JUMPI PUSH0 DUP1 REVERT JUMPDEST DUP1 PUSH4 0x13137D65 EQ PUSH2 0x89 JUMPI DUP1 PUSH4 0x4EFB08CE EQ PUSH2 0x9E JUMPI DUP1 PUSH4 0x51CFF8D9 EQ PUSH2 0xB1 JUMPI DUP1 PUSH4 0x535F3A0D EQ PUSH2 0xC4 JUMPI JUMPDEST PUSH0 DUP1 REVERT JUMPDEST PUSH2 0x9C PUSH2 0x97 CALLDATASIZE PUSH1 0x4 PUSH2 0x602 JUMP JUMPDEST PUSH2 0x1A1 JUMP JUMPDEST STOP JUMPDEST PUSH2 0x9C PUSH2 0xAC CALLDATASIZE PUSH1 0x4 PUSH2 0x6B9 JUMP JUMPDEST PUSH2 0x4CE JUMP JUMPDEST PUSH2 0x9C PUSH2 0xBF CALLDATASIZE PUSH1 0x4 PUSH2 0x6E1 JUMP JUMPDEST PUSH2 0x52B JUMP JUMPDEST PUSH2 0xE6 PUSH2 0xD2 CALLDATASIZE PUSH1 0x4 PUSH2 0x703 JUMP JUMPDEST PUSH1 0x3 PUSH1 0x20 MSTORE PUSH0 SWAP1 DUP2 MSTORE PUSH1 0x40 SWAP1 KECCAK256 SLOAD PUSH1 0xFF AND DUP2 JUMP JUMPDEST PUSH1 0x40 MLOAD SWAP1 ISZERO ISZERO DUP2 MSTORE PUSH1 0x20 ADD JUMPDEST PUSH1 0x40 MLOAD DUP1 SWAP2 SUB SWAP1 RETURN JUMPDEST PUSH2 0x11A PUSH2 0x109 CALLDATASIZE PUSH1 0x4 PUSH2 0x71A JUMP JUMPDEST PUSH1 0x2 PUSH1 0x20 MSTORE PUSH0 SWAP1 DUP2 MSTORE PUSH1 0x40 SWAP1 KECCAK256 SLOAD DUP2 JUMP JUMPDEST PUSH1 0x40 MLOAD SWAP1 DUP2 MSTORE PUSH1 0x20 ADD PUSH2 0xF2 JUMP JUMPDEST PUSH1 0x1 SLOAD PUSH2 0x13B SWAP1 PUSH1 0x1 PUSH1 0x1 PUSH1 0xA0 SHL SUB AND DUP2 JUMP JUMPDEST PUSH1 0x40 MLOAD PUSH1 0x1 PUSH1 0x1 PUSH1 0xA0 SHL SUB SWAP1 SWAP2 AND DUP2 MSTORE PUSH1 0x20 ADD PUSH2 0xF2 JUMP JUMPDEST PUSH0 SLOAD PUSH2 0x13B SWAP1 PUSH1 0x1 PUSH1 0x1 PUSH1 0xA0 SHL SUB AND DUP2 JUMP JUMPDEST PUSH2 0x18C PUSH32 0x0 DUP2 JUMP JUMPDEST PUSH1 0x40 MLOAD PUSH4 0xFFFFFFFF SWAP1 SWAP2 AND DUP2 MSTORE PUSH1 0x20 ADD PUSH2 0xF2 JUMP JUMPDEST PUSH1 0x1 SLOAD PUSH1 0x1 PUSH1 0x1 PUSH1 0xA0 SHL SUB AND CALLER EQ PUSH2 0x1EF JUMPI PUSH1 0x40 MLOAD PUSH3 0x461BCD PUSH1 0xE5 SHL DUP2 MSTORE PUSH1 0x20 PUSH1 0x4 DUP3 ADD MSTORE PUSH1 0xC PUSH1 0x24 DUP3 ADD MSTORE PUSH12 0x1B9BDD08195B991C1BDA5B9D PUSH1 0xA2 SHL PUSH1 0x44 DUP3 ADD MSTORE PUSH1 0x64 ADD JUMPDEST PUSH1 0x40 MLOAD DUP1 SWAP2 SUB SWAP1 REVERT JUMPDEST PUSH0 PUSH2 0x1FD PUSH1 0x20 DUP10 ADD DUP10 PUSH2 0x71A JUMP JUMPDEST PUSH4 0xFFFFFFFF DUP2 AND PUSH0 SWAP1 DUP2 MSTORE PUSH1 0x2 PUSH1 0x20 MSTORE PUSH1 0x40 SWAP1 KECCAK256 SLOAD SWAP1 SWAP2 POP DUP1 PUSH2 0x250 JUMPI PUSH1 0x40 MLOAD PUSH3 0x461BCD PUSH1 0xE5 SHL DUP2 MSTORE PUSH1 0x20 PUSH1 0x4 DUP3 ADD MSTORE PUSH1 0xB PUSH1 0x24 DUP3 ADD MSTORE PUSH11 0x756E6B6E6F776E20737263 PUSH1 0xA8 SHL PUSH1 0x44 DUP3 ADD MSTORE PUSH1 0x64 ADD PUSH2 0x1E6 JUMP JUMPDEST DUP1 DUP10 PUSH1 0x20 ADD CALLDATALOAD EQ PUSH2 0x290 JUMPI PUSH1 0x40 MLOAD PUSH3 0x461BCD PUSH1 0xE5 SHL DUP2 MSTORE PUSH1 0x20 PUSH1 0x4 DUP3 ADD MSTORE PUSH1 0xA PUSH1 0x24 DUP3 ADD MSTORE PUSH10 0x3130B21039B2B73232B9 PUSH1 0xB1 SHL PUSH1 0x44 DUP3 ADD MSTORE PUSH1 0x64 ADD PUSH2 0x1E6 JUMP JUMPDEST PUSH0 DUP1 DUP1 PUSH2 0x29F DUP10 DUP12 ADD DUP12 PUSH2 0x748 JUMP JUMPDEST SWAP5 POP POP POP SWAP3 POP SWAP3 POP PUSH0 DUP6 DUP13 DUP6 DUP6 DUP6 PUSH1 0x40 MLOAD PUSH1 0x20 ADD PUSH2 0x2F1 SWAP6 SWAP5 SWAP4 SWAP3 SWAP2 SWAP1 PUSH4 0xFFFFFFFF SWAP6 SWAP1 SWAP6 AND DUP6 MSTORE PUSH1 0x20 DUP6 ADD SWAP4 SWAP1 SWAP4 MSTORE PUSH1 0x40 DUP5 ADD SWAP2 SWAP1 SWAP2 MSTORE PUSH1 0x60 DUP4 ADD MSTORE PUSH8 0xFFFFFFFFFFFFFFFF AND PUSH1 0x80 DUP3 ADD MSTORE PUSH1 0xA0 ADD SWAP1 JUMP JUMPDEST PUSH1 0x40 DUP1 MLOAD PUSH1 0x1F NOT DUP2 DUP5 SUB ADD DUP2 MSTORE SWAP2 DUP2 MSTORE DUP2 MLOAD PUSH1 0x20 SWAP3 DUP4 ADD KECCAK256 PUSH0 DUP2 DUP2 MSTORE PUSH1 0x3 SWAP1 SWAP4 MSTORE SWAP2 KECCAK256 SLOAD SWAP1 SWAP2 POP PUSH1 0xFF AND ISZERO PUSH2 0x32B JUMPI POP POP POP POP POP POP PUSH2 0x4C5 JUMP JUMPDEST PUSH0 DUP2 DUP2 MSTORE PUSH1 0x3 PUSH1 0x20 SWAP1 DUP2 MSTORE PUSH1 0x40 DUP1 DUP4 KECCAK256 DUP1 SLOAD PUSH1 0xFF NOT AND PUSH1 0x1 OR SWAP1 SSTORE DUP1 MLOAD NUMBER SWAP3 DUP2 ADD SWAP3 SWAP1 SWAP3 MSTORE DUP2 ADD DUP7 SWAP1 MSTORE PUSH1 0x60 DUP2 ADD DUP6 SWAP1 MSTORE PUSH1 0x80 ADD PUSH1 0x40 DUP1 MLOAD DUP1 DUP4 SUB PUSH1 0x1F NOT ADD DUP2 MSTORE DUP3 DUP3 MSTORE DUP1 MLOAD PUSH1 0x20 SWAP2 DUP3 ADD KECCAK256 DUP8 DUP5 MSTORE PUSH4 0xFFFFFFFF DUP12 AND SWAP2 DUP5 ADD SWAP2 SWAP1 SWAP2 MSTORE ADDRESS XOR SWAP1 DUP3 ADD DUP2 SWAP1 MSTORE PUSH8 0xFFFFFFFFFFFFFFFF DUP6 AND PUSH1 0x60 DUP4 ADD MSTORE SWAP2 POP DUP6 SWAP1 PUSH32 0x10EF118D1307C29677CBF769F6754397C80E78ADDA7F133373A816867C3D19B4 SWAP1 PUSH1 0x80 ADD PUSH1 0x40 MLOAD DUP1 SWAP2 SUB SWAP1 LOG2 PUSH1 0x40 DUP1 MLOAD PUSH1 0x20 DUP2 ADD DUP8 SWAP1 MSTORE SWAP1 DUP2 ADD DUP6 SWAP1 MSTORE PUSH1 0x1 PUSH1 0x60 DUP3 ADD MSTORE PUSH1 0x80 DUP2 ADD DUP3 SWAP1 MSTORE PUSH8 0xFFFFFFFFFFFFFFFF DUP5 AND PUSH1 0xA0 DUP3 ADD MSTORE PUSH0 SWAP1 PUSH1 0xC0 ADD PUSH1 0x40 DUP1 MLOAD DUP1 DUP4 SUB PUSH1 0x1F NOT ADD DUP2 MSTORE PUSH1 0xA0 DUP4 ADD DUP3 MSTORE PUSH4 0xFFFFFFFF DUP12 AND DUP4 MSTORE PUSH1 0x20 DUP1 DUP5 ADD DUP12 SWAP1 MSTORE DUP4 DUP4 ADD DUP3 SWAP1 MSTORE DUP3 MLOAD SWAP1 DUP2 ADD DUP4 MSTORE PUSH0 DUP1 DUP3 MSTORE PUSH1 0x60 DUP6 ADD SWAP2 SWAP1 SWAP2 MSTORE PUSH1 0x80 DUP5 ADD DUP2 SWAP1 MSTORE PUSH1 0x1 SLOAD SWAP3 MLOAD PUSH4 0x7970D8FB PUSH1 0xE0 SHL DUP2 MSTORE SWAP2 SWAP5 POP PUSH1 0x1 PUSH1 0x1 PUSH1 0xA0 SHL SUB SWAP1 SWAP3 AND SWAP2 PUSH4 0x7970D8FB SWAP2 PUSH2 0x47B SWAP2 DUP6 SWAP2 PUSH1 0x4 ADD PUSH2 0x7D4 JUMP JUMPDEST PUSH1 0x40 DUP1 MLOAD DUP1 DUP4 SUB DUP2 PUSH0 DUP8 GAS CALL ISZERO DUP1 ISZERO PUSH2 0x496 JUMPI RETURNDATASIZE PUSH0 DUP1 RETURNDATACOPY RETURNDATASIZE PUSH0 REVERT JUMPDEST POP POP POP POP PUSH1 0x40 MLOAD RETURNDATASIZE PUSH1 0x1F NOT PUSH1 0x1F DUP3 ADD AND DUP3 ADD DUP1 PUSH1 0x40 MSTORE POP DUP2 ADD SWAP1 PUSH2 0x4BA SWAP2 SWAP1 PUSH2 0x852 JUMP JUMPDEST POP POP POP POP POP POP POP POP POP POP JUMPDEST POP POP POP POP POP POP POP JUMP JUMPDEST PUSH0 SLOAD PUSH1 0x1 PUSH1 0x1 PUSH1 0xA0 SHL SUB AND CALLER EQ PUSH2 0x513 JUMPI PUSH1 0x40 MLOAD PUSH3 0x461BCD PUSH1 0xE5 SHL DUP2 MSTORE PUSH1 0x20 PUSH1 0x4 DUP3 ADD MSTORE PUSH1 0x9 PUSH1 0x24 DUP3 ADD MSTORE PUSH9 0x3737BA1037BBB732B9 PUSH1 0xB9 SHL PUSH1 0x44 DUP3 ADD MSTORE PUSH1 0x64 ADD PUSH2 0x1E6 JUMP JUMPDEST PUSH4 0xFFFFFFFF SWAP1 SWAP2 AND PUSH0 SWAP1 DUP2 MSTORE PUSH1 0x2 PUSH1 0x20 MSTORE PUSH1 0x40 SWAP1 KECCAK256 SSTORE JUMP JUMPDEST PUSH0 SLOAD PUSH1 0x1 PUSH1 0x1 PUSH1 0xA0 SHL SUB AND CALLER EQ PUSH2 0x570 JUMPI PUSH1 0x40 MLOAD PUSH3 0x461BCD PUSH1 0xE5 SHL DUP2 MSTORE PUSH1 0x20 PUSH1 0x4 DUP3 ADD MSTORE PUSH1 0x9 PUSH1 0x24 DUP3 ADD MSTORE PUSH9 0x3737BA1037BBB732B9 PUSH1 0xB9 SHL PUSH1 0x44 DUP3 ADD MSTORE PUSH1 0x64 ADD PUSH2 0x1E6 JUMP JUMPDEST PUSH1 0x40 MLOAD PUSH1 0x1 PUSH1 0x1 PUSH1 0xA0 SHL SUB DUP3 AND SWAP1 SELFBALANCE DUP1 ISZERO PUSH2 0x8FC MUL SWAP2 PUSH0 DUP2 DUP2 DUP2 DUP6 DUP9 DUP9 CALL SWAP4 POP POP POP POP ISZERO DUP1 ISZERO PUSH2 0x5A2 JUMPI RETURNDATASIZE PUSH0 DUP1 RETURNDATACOPY RETURNDATASIZE PUSH0 REVERT JUMPDEST POP POP JUMP JUMPDEST PUSH0 DUP1 DUP4 PUSH1 0x1F DUP5 ADD SLT PUSH2 0x5B6 JUMPI PUSH0 DUP1 REVERT JUMPDEST POP DUP2 CALLDATALOAD PUSH8 0xFFFFFFFFFFFFFFFF DUP2 GT ISZERO PUSH2 0x5CD JUMPI PUSH0 DUP1 REVERT JUMPDEST PUSH1 0x20 DUP4 ADD SWAP2 POP DUP4 PUSH1 0x20 DUP3 DUP6 ADD ADD GT ISZERO PUSH2 0x5E4 JUMPI PUSH0 DUP1 REVERT JUMPDEST SWAP3 POP SWAP3 SWAP1 POP JUMP JUMPDEST PUSH1 0x1 PUSH1 0x1 PUSH1 0xA0 SHL SUB DUP2 AND DUP2 EQ PUSH2 0x5FF JUMPI PUSH0 DUP1 REVERT JUMPDEST POP JUMP JUMPDEST PUSH0 DUP1 PUSH0 DUP1 PUSH0 DUP1 PUSH0 DUP8 DUP10 SUB PUSH1 0xE0 DUP2 SLT ISZERO PUSH2 0x619 JUMPI PUSH0 DUP1 REVERT JUMPDEST PUSH1 0x60 DUP2 SLT ISZERO PUSH2 0x626 JUMPI PUSH0 DUP1 REVERT JUMPDEST POP DUP8 SWAP7 POP PUSH1 0x60 DUP9 ADD CALLDATALOAD SWAP6 POP PUSH1 0x80 DUP9 ADD CALLDATALOAD PUSH8 0xFFFFFFFFFFFFFFFF DUP1 DUP3 GT ISZERO PUSH2 0x64B JUMPI PUSH0 DUP1 REVERT JUMPDEST PUSH2 0x657 DUP12 DUP4 DUP13 ADD PUSH2 0x5A6 JUMP JUMPDEST SWAP1 SWAP8 POP SWAP6 POP PUSH1 0xA0 DUP11 ADD CALLDATALOAD SWAP2 POP PUSH2 0x66C DUP3 PUSH2 0x5EB JUMP JUMPDEST SWAP1 SWAP4 POP PUSH1 0xC0 DUP10 ADD CALLDATALOAD SWAP1 DUP1 DUP3 GT ISZERO PUSH2 0x681 JUMPI PUSH0 DUP1 REVERT JUMPDEST POP PUSH2 0x68E DUP11 DUP3 DUP12 ADD PUSH2 0x5A6 JUMP JUMPDEST SWAP9 SWAP12 SWAP8 SWAP11 POP SWAP6 SWAP9 POP SWAP4 SWAP7 SWAP3 SWAP6 SWAP3 SWAP4 POP POP POP JUMP JUMPDEST DUP1 CALLDATALOAD PUSH4 0xFFFFFFFF DUP2 AND DUP2 EQ PUSH2 0x6B4 JUMPI PUSH0 DUP1 REVERT JUMPDEST SWAP2 SWAP1 POP JUMP JUMPDEST PUSH0 DUP1 PUSH1 0x40 DUP4 DUP6 SUB SLT ISZERO PUSH2 0x6CA JUMPI PUSH0 DUP1 REVERT JUMPDEST PUSH2 0x6D3 DUP4 PUSH2 0x6A1 JUMP JUMPDEST SWAP5 PUSH1 0x20 SWAP4 SWAP1 SWAP4 ADD CALLDATALOAD SWAP4 POP POP POP JUMP JUMPDEST PUSH0 PUSH1 0x20 DUP3 DUP5 SUB SLT ISZERO PUSH2 0x6F1 JUMPI PUSH0 DUP1 REVERT JUMPDEST DUP2 CALLDATALOAD PUSH2 0x6FC DUP2 PUSH2 0x5EB JUMP JUMPDEST SWAP4 SWAP3 POP POP POP JUMP JUMPDEST PUSH0 PUSH1 0x20 DUP3 DUP5 SUB SLT ISZERO PUSH2 0x713 JUMPI PUSH0 DUP1 REVERT JUMPDEST POP CALLDATALOAD SWAP2 SWAP1 POP JUMP JUMPDEST PUSH0 PUSH1 0x20 DUP3 DUP5 SUB SLT ISZERO PUSH2 0x72A JUMPI PUSH0 DUP1 REVERT JUMPDEST PUSH2 0x6FC DUP3 PUSH2 0x6A1 JUMP JUMPDEST PUSH8 0xFFFFFFFFFFFFFFFF DUP2 AND DUP2 EQ PUSH2 0x5FF JUMPI PUSH0 DUP1 REVERT JUMPDEST PUSH0 DUP1 PUSH0 DUP1 PUSH0 PUSH1 0xA0 DUP7 DUP9 SUB SLT ISZERO PUSH2 0x75C JUMPI PUSH0 DUP1 REVERT JUMPDEST DUP6 CALLDATALOAD SWAP5 POP PUSH1 0x20 DUP7 ADD CALLDATALOAD SWAP4 POP PUSH1 0x40 DUP7 ADD CALLDATALOAD SWAP3 POP PUSH1 0x60 DUP7 ADD CALLDATALOAD SWAP2 POP PUSH1 0x80 DUP7 ADD CALLDATALOAD PUSH2 0x783 DUP2 PUSH2 0x733 JUMP JUMPDEST DUP1 SWAP2 POP POP SWAP3 SWAP6 POP SWAP3 SWAP6 SWAP1 SWAP4 POP JUMP JUMPDEST PUSH0 DUP2 MLOAD DUP1 DUP5 MSTORE PUSH0 JUMPDEST DUP2 DUP2 LT ISZERO PUSH2 0x7B5 JUMPI PUSH1 0x20 DUP2 DUP6 ADD DUP2 ADD MLOAD DUP7 DUP4 ADD DUP3 ADD MSTORE ADD PUSH2 0x799 JUMP JUMPDEST POP PUSH0 PUSH1 0x20 DUP3 DUP7 ADD ADD MSTORE PUSH1 0x20 PUSH1 0x1F NOT PUSH1 0x1F DUP4 ADD AND DUP6 ADD ADD SWAP2 POP POP SWAP3 SWAP2 POP POP JUMP JUMPDEST PUSH1 0x40 DUP2 MSTORE PUSH4 0xFFFFFFFF DUP4 MLOAD AND PUSH1 0x40 DUP3 ADD MSTORE PUSH1 0x20 DUP4 ADD MLOAD PUSH1 0x60 DUP3 ADD MSTORE PUSH0 PUSH1 0x40 DUP5 ADD MLOAD PUSH1 0xA0 PUSH1 0x80 DUP5 ADD MSTORE PUSH2 0x809 PUSH1 0xE0 DUP5 ADD DUP3 PUSH2 0x791 JUMP JUMPDEST SWAP1 POP PUSH1 0x60 DUP6 ADD MLOAD PUSH1 0x3F NOT DUP5 DUP4 SUB ADD PUSH1 0xA0 DUP6 ADD MSTORE PUSH2 0x826 DUP3 DUP3 PUSH2 0x791 JUMP JUMPDEST PUSH1 0x80 SWAP7 SWAP1 SWAP7 ADD MLOAD PUSH1 0x1 PUSH1 0x1 PUSH1 0xA0 SHL SUB SWAP1 DUP2 AND PUSH1 0xC0 DUP7 ADD MSTORE SWAP5 SWAP1 SWAP5 AND PUSH1 0x20 SWAP1 SWAP4 ADD SWAP3 SWAP1 SWAP3 MSTORE POP SWAP2 SWAP3 SWAP2 POP POP JUMP JUMPDEST PUSH0 PUSH1 0x40 DUP3 DUP5 SUB SLT ISZERO PUSH2 0x862 JUMPI PUSH0 DUP1 REVERT JUMPDEST PUSH1 0x40 MLOAD PUSH1 0x40 DUP2 ADD DUP2 DUP2 LT PUSH8 0xFFFFFFFFFFFFFFFF DUP3 GT OR ISZERO PUSH2 0x891 JUMPI PUSH4 0x4E487B71 PUSH1 0xE0 SHL PUSH0 MSTORE PUSH1 0x41 PUSH1 0x4 MSTORE PUSH1 0x24 PUSH0 REVERT JUMPDEST PUSH1 0x40 MSTORE DUP3 MLOAD DUP2 MSTORE PUSH1 0x20 DUP4 ADD MLOAD PUSH2 0x8A6 DUP2 PUSH2 0x733 JUMP JUMPDEST PUSH1 0x20 DUP3 ADD MSTORE SWAP4 SWAP3 POP POP POP JUMP INVALID LOG2 PUSH5 0x6970667358 0x22 SLT KECCAK256 SWAP15 0xB5 0x2B DUP8 NOT SHR PUSH18 0x3792C7C6FDC22F42C0CB07FD350D580CCE0D PUSH24 0xE3FDC896374F64736F6C6343000818003300000000000000 "},"methodIdentifiers":{"LOCAL_EID()":"f368ce21","endpoint()":"5e280f11","hubs(uint32)":"53d60335","lzReceive((uint32,bytes32,uint64),bytes32,bytes,address,bytes)":"13137d65","owner()":"8da5cb5b","seenPayload(bytes32)":"535f3a0d","setHub(uint32,bytes32)":"4efb08ce","withdraw(address)":"51cff8d9"}}}}}