{
  "_format": "hh3-artifact-1",
  "contractName": "SpokeOApp",
  "sourceName": "contracts/SpokeOApp.sol",
  "abi": [
    {
      "inputs": [
        {
          "internalType": "address",
          "name": "_endpoint",
          "type": "address"
        },
        {
          "internalType": "uint32",
          "name": "_eid",
          "type": "uint32"
        }
      ],
      "stateMutability": "nonpayable",
      "type": "constructor"
    },
    {
      "anonymous": false,
      "inputs": [
        {
          "indexed": true,
          "internalType": "uint256",
          "name": "companyId",
          "type": "uint256"
        },
        {
          "indexed": false,
          "internalType": "bytes32",
          "name": "payloadHash",
          "type": "bytes32"
        },
        {
          "indexed": false,
          "internalType": "uint32",
          "name": "srcEid",
          "type": "uint32"
        },
        {
          "indexed": false,
          "internalType": "bytes32",
          "name": "dstTxHashLike",
          "type": "bytes32"
        },
        {
          "indexed": false,
          "internalType": "uint64",
          "name": "nonce",
          "type": "uint64"
        }
      ],
      "name": "BlockMirrored",
      "type": "event"
    },
    {
      "inputs": [],
      "name": "LOCAL_EID",
      "outputs": [
        {
          "internalType": "uint32",
          "name": "",
          "type": "uint32"
        }
      ],
      "stateMutability": "view",
      "type": "function"
    },
    {
      "inputs": [],
      "name": "ackFeeWei",
      "outputs": [
        {
          "internalType": "uint256",
          "name": "",
          "type": "uint256"
        }
      ],
      "stateMutability": "view",
      "type": "function"
    },
    {
      "inputs": [],
      "name": "endpoint",
      "outputs": [
        {
          "internalType": "contract ILayerZeroEndpointV2",
          "name": "",
          "type": "address"
        }
      ],
      "stateMutability": "view",
      "type": "function"
    },
    {
      "inputs": [
        {
          "internalType": "uint32",
          "name": "",
          "type": "uint32"
        }
      ],
      "name": "hubs",
      "outputs": [
        {
          "internalType": "bytes32",
          "name": "",
          "type": "bytes32"
        }
      ],
      "stateMutability": "view",
      "type": "function"
    },
    {
      "inputs": [
        {
          "components": [
            {
              "internalType": "uint32",
              "name": "srcEid",
              "type": "uint32"
            },
            {
              "internalType": "bytes32",
              "name": "sender",
              "type": "bytes32"
            },
            {
              "internalType": "uint64",
              "name": "nonce",
              "type": "uint64"
            }
          ],
          "internalType": "struct LZTypes.Origin",
          "name": "origin",
          "type": "tuple"
        },
        {
          "internalType": "bytes32",
          "name": "guid",
          "type": "bytes32"
        },
        {
          "internalType": "bytes",
          "name": "message",
          "type": "bytes"
        },
        {
          "internalType": "address",
          "name": "",
          "type": "address"
        },
        {
          "internalType": "bytes",
          "name": "",
          "type": "bytes"
        }
      ],
      "name": "lzReceive",
      "outputs": [],
      "stateMutability": "nonpayable",
      "type": "function"
    },
    {
      "inputs": [],
      "name": "owner",
      "outputs": [
        {
          "internalType": "address",
          "name": "",
          "type": "address"
        }
      ],
      "stateMutability": "view",
      "type": "function"
    },
    {
      "inputs": [
        {
          "internalType": "bytes32",
          "name": "",
          "type": "bytes32"
        }
      ],
      "name": "seenPayload",
      "outputs": [
        {
          "internalType": "bool",
          "name": "",
          "type": "bool"
        }
      ],
      "stateMutability": "view",
      "type": "function"
    },
    {
      "inputs": [
        {
          "internalType": "uint256",
          "name": "v",
          "type": "uint256"
        }
      ],
      "name": "setAckFeeWei",
      "outputs": [],
      "stateMutability": "nonpayable",
      "type": "function"
    },
    {
      "inputs": [
        {
          "internalType": "uint32",
          "name": "srcEid",
          "type": "uint32"
        },
        {
          "internalType": "bytes32",
          "name": "hub",
          "type": "bytes32"
        }
      ],
      "name": "setHub",
      "outputs": [],
      "stateMutability": "nonpayable",
      "type": "function"
    },
    {
      "inputs": [
        {
          "internalType": "address payable",
          "name": "to",
          "type": "address"
        }
      ],
      "name": "withdraw",
      "outputs": [],
      "stateMutability": "nonpayable",
      "type": "function"
    },
    {
      "stateMutability": "payable",
      "type": "receive"
    }
  ],
  "bytecode": "0x60a060405234801561000f575f80fd5b50604051610a48380380610a4883398101604081905261002e9161006a565b5f8054336001600160a01b031991821617909155600180549091166001600160a01b03939093169290921790915563ffffffff166080526100b5565b5f806040838503121561007b575f80fd5b82516001600160a01b0381168114610091575f80fd5b602084015190925063ffffffff811681146100aa575f80fd5b809150509250929050565b60805161097b6100cd5f395f610212015261097b5ff3fe608060405260043610610092575f3560e01c806353d603351161005757806353d603351461015e5780635e280f11146101975780638da5cb5b146101ce57806392f3eebb146101ec578063f368ce2114610201575f80fd5b806313137d651461009d5780633e6315b2146100be5780634efb08ce146100dd57806351cff8d9146100fc578063535f3a0d1461011b575f80fd5b3661009957005b5f80fd5b3480156100a8575f80fd5b506100bc6100b7366004610672565b610249565b005b3480156100c9575f80fd5b506100bc6100d8366004610711565b610548565b3480156100e8575f80fd5b506100bc6100f7366004610740565b610576565b348015610107575f80fd5b506100bc610116366004610768565b6105b7565b348015610126575f80fd5b50610149610135366004610711565b60036020525f908152604090205460ff1681565b60405190151581526020015b60405180910390f35b348015610169575f80fd5b5061018961017836600461078a565b60026020525f908152604090205481565b604051908152602001610155565b3480156101a2575f80fd5b506001546101b6906001600160a01b031681565b6040516001600160a01b039091168152602001610155565b3480156101d9575f80fd5b505f546101b6906001600160a01b031681565b3480156101f7575f80fd5b5061018960045481565b34801561020c575f80fd5b506102347f000000000000000000000000000000000000000000000000000000000000000081565b60405163ffffffff9091168152602001610155565b6001546001600160a01b031633146102975760405162461bcd60e51b815260206004820152600c60248201526b1b9bdd08195b991c1bda5b9d60a21b60448201526064015b60405180910390fd5b5f6102a5602089018961078a565b63ffffffff81165f90815260026020526040902054909150806102f85760405162461bcd60e51b815260206004820152600b60248201526a756e6b6e6f776e2073726360a81b604482015260640161028e565b808960200135146103385760405162461bcd60e51b815260206004820152600a6024820152693130b21039b2b73232b960b11b604482015260640161028e565b5f8080610347898b018b6107b8565b94505050925092505f858c85858560405160200161039995949392919063ffffffff95909516855260208501939093526040840191909152606083015267ffffffffffffffff16608082015260a00190565b60408051601f1981840301815291815281516020928301205f818152600390935291205490915060ff16156103d35750505050505061053f565b5f81815260036020908152604091829020805460ff19166001179055815185815263ffffffff8916918101919091529081018d905267ffffffffffffffff8316606082015284907f10ef118d1307c29677cbf769f6754397c80e78adda7f133373a816867c3d19b49060800160405180910390a2604080516020810186905290810184905260016060820152608081018d905267ffffffffffffffff831660a08201525f9060c00160408051808303601f1901815260a08301825263ffffffff8a16835260208084018a9052838301829052825190810183525f808252606085019190915260808401819052600154600480549451637970d8fb60e01b81529396506001600160a01b0390911693637970d8fb9390926104f592879201610844565b604080518083038185885af1158015610510573d5f803e3d5ffd5b50505050506040513d601f19601f8201168201806040525081019061053591906108c2565b5050505050505050505b50505050505050565b5f546001600160a01b031633146105715760405162461bcd60e51b815260040161028e90610922565b600455565b5f546001600160a01b0316331461059f5760405162461bcd60e51b815260040161028e90610922565b63ffffffff9091165f90815260026020526040902055565b5f546001600160a01b031633146105e05760405162461bcd60e51b815260040161028e90610922565b6040516001600160a01b038216904780156108fc02915f818181858888f19350505050158015610612573d5f803e3d5ffd5b5050565b5f8083601f840112610626575f80fd5b50813567ffffffffffffffff81111561063d575f80fd5b602083019150836020828501011115610654575f80fd5b9250929050565b6001600160a01b038116811461066f575f80fd5b50565b5f805f805f805f87890360e0811215610689575f80fd5b6060811215610696575f80fd5b5087965060608801359550608088013567ffffffffffffffff808211156106bb575f80fd5b6106c78b838c01610616565b909750955060a08a013591506106dc8261065b565b90935060c089013590808211156106f1575f80fd5b506106fe8a828b01610616565b989b979a50959850939692959293505050565b5f60208284031215610721575f80fd5b5035919050565b803563ffffffff8116811461073b575f80fd5b919050565b5f8060408385031215610751575f80fd5b61075a83610728565b946020939093013593505050565b5f60208284031215610778575f80fd5b81356107838161065b565b9392505050565b5f6020828403121561079a575f80fd5b61078382610728565b67ffffffffffffffff8116811461066f575f80fd5b5f805f805f60a086880312156107cc575f80fd5b8535945060208601359350604086013592506060860135915060808601356107f3816107a3565b809150509295509295909350565b5f81518084525f5b8181101561082557602081850181015186830182015201610809565b505f602082860101526020601f19601f83011685010191505092915050565b6040815263ffffffff8351166040820152602083015160608201525f604084015160a0608084015261087960e0840182610801565b90506060850151603f198483030160a08501526108968282610801565b608096909601516001600160a01b0390811660c086015294909416602090930192909252509192915050565b5f604082840312156108d2575f80fd5b6040516040810181811067ffffffffffffffff8211171561090157634e487b7160e01b5f52604160045260245ffd5b604052825181526020830151610916816107a3565b60208201529392505050565b6020808252600990820152683737ba1037bbb732b960b91b60408201526060019056fea2646970667358221220ce0e064bc57e37256104b5e9447147a87f80143029b8bb24a17c2809b8f7d64f64736f6c63430008180033",
  "linkReferences": {},
  "deployedLinkReferences": {},
  "immutableReferences": {
    "14": [
      {
        "length": 32,
        "start": 530
      }
    ]
  },
  "inputSourceName": "project/contracts/SpokeOApp.sol",
  "buildInfoId": "solc-0_8_24-11bf5a4328f6933f76d185bc3f854d6f45a0cafd"
}