{
  "_format": "hh3-artifact-1",
  "contractName": "HubRegistry",
  "sourceName": "contracts/HubRegistry.sol",
  "abi": [
    {
      "anonymous": false,
      "inputs": [
        {
          "indexed": true,
          "internalType": "bytes32",
          "name": "logId",
          "type": "bytes32"
        },
        {
          "indexed": true,
          "internalType": "address",
          "name": "author",
          "type": "address"
        },
        {
          "indexed": false,
          "internalType": "bytes32",
          "name": "contentHash",
          "type": "bytes32"
        },
        {
          "indexed": false,
          "internalType": "string",
          "name": "metadata",
          "type": "string"
        }
      ],
      "name": "HubLogPushed",
      "type": "event"
    },
    {
      "anonymous": false,
      "inputs": [
        {
          "indexed": true,
          "internalType": "uint256",
          "name": "originChainId",
          "type": "uint256"
        },
        {
          "indexed": true,
          "internalType": "bytes32",
          "name": "originTxHash",
          "type": "bytes32"
        }
      ],
      "name": "ReceiptRecorded",
      "type": "event"
    },
    {
      "inputs": [
        {
          "internalType": "bytes32",
          "name": "",
          "type": "bytes32"
        }
      ],
      "name": "logs",
      "outputs": [
        {
          "internalType": "address",
          "name": "author",
          "type": "address"
        },
        {
          "internalType": "bytes32",
          "name": "contentHash",
          "type": "bytes32"
        },
        {
          "internalType": "uint256",
          "name": "timestamp",
          "type": "uint256"
        },
        {
          "internalType": "string",
          "name": "metadata",
          "type": "string"
        }
      ],
      "stateMutability": "view",
      "type": "function"
    },
    {
      "inputs": [
        {
          "internalType": "bytes32",
          "name": "logId",
          "type": "bytes32"
        },
        {
          "internalType": "bytes32",
          "name": "contentHash",
          "type": "bytes32"
        },
        {
          "internalType": "string",
          "name": "metadata",
          "type": "string"
        }
      ],
      "name": "pushHubLog",
      "outputs": [],
      "stateMutability": "nonpayable",
      "type": "function"
    },
    {
      "inputs": [
        {
          "internalType": "bytes32",
          "name": "",
          "type": "bytes32"
        }
      ],
      "name": "receiptSeen",
      "outputs": [
        {
          "internalType": "bool",
          "name": "",
          "type": "bool"
        }
      ],
      "stateMutability": "view",
      "type": "function"
    },
    {
      "inputs": [
        {
          "internalType": "uint256",
          "name": "originChainId",
          "type": "uint256"
        },
        {
          "internalType": "bytes32",
          "name": "originTxHash",
          "type": "bytes32"
        }
      ],
      "name": "recordReceipt",
      "outputs": [],
      "stateMutability": "nonpayable",
      "type": "function"
    }
  ],
  "bytecode": "0x6080604052348015600e575f5ffd5b506106108061001c5f395ff3fe608060405234801561000f575f5ffd5b506004361061004a575f3560e01c8063095564b31461004e57806336aa811e146100635780639a02b6531461009a578063cd5ff0e0146100bd575b5f5ffd5b61006161005c36600461034d565b6100d0565b005b6100856100713660046103c9565b5f6020819052908152604090205460ff1681565b60405190151581526020015b60405180910390f35b6100ad6100a83660046103c9565b6101d4565b60405161009194939291906103e0565b6100616100cb366004610432565b61028f565b6040518060800160405280336001600160a01b0316815260200184815260200142815260200183838080601f0160208091040260200160405190810160405280939291908181526020018383808284375f92018290525093909452505086815260016020818152604092839020855181546001600160a01b0319166001600160a01b0390911617815590850151918101919091559083015160028201556060830151909150600382019061018490826104ea565b50905050336001600160a01b0316847fba7f4852c21fb6d2fb258806c1c98fff345651b998b92ccf38e0e1444b9fea1b8585856040516101c6939291906105a5565b60405180910390a350505050565b600160208190525f918252604090912080549181015460028201546003830180546001600160a01b03909516949293919261020e90610466565b80601f016020809104026020016040519081016040528092919081815260200182805461023a90610466565b80156102855780601f1061025c57610100808354040283529160200191610285565b820191905f5260205f20905b81548152906001019060200180831161026857829003601f168201915b5050505050905084565b604080516020808201859052818301849052825180830384018152606090920183528151918101919091205f818152918290529190205460ff16156103065760405162461bcd60e51b81526020600482015260096024820152686475706c696361746560b81b604482015260640160405180910390fd5b5f81815260208190526040808220805460ff1916600117905551839185917ffc05054c3b8379dcf1d3fe99bd095115159949edefe9f6dc0921ffb58013a3859190a3505050565b5f5f5f5f60608587031215610360575f5ffd5b8435935060208501359250604085013567ffffffffffffffff811115610384575f5ffd5b8501601f81018713610394575f5ffd5b803567ffffffffffffffff8111156103aa575f5ffd5b8760208284010111156103bb575f5ffd5b949793965060200194505050565b5f602082840312156103d9575f5ffd5b5035919050565b60018060a01b0385168152836020820152826040820152608060608201525f8251806080840152806020850160a085015e5f60a0828501015260a0601f19601f83011684010191505095945050505050565b5f5f60408385031215610443575f5ffd5b50508035926020909101359150565b634e487b7160e01b5f52604160045260245ffd5b600181811c9082168061047a57607f821691505b60208210810361049857634e487b7160e01b5f52602260045260245ffd5b50919050565b601f8211156104e557805f5260205f20601f840160051c810160208510156104c35750805b601f840160051c820191505b818110156104e2575f81556001016104cf565b50505b505050565b815167ffffffffffffffff81111561050457610504610452565b610518816105128454610466565b8461049e565b6020601f82116001811461054a575f83156105335750848201515b5f19600385901b1c1916600184901b1784556104e2565b5f84815260208120601f198516915b828110156105795787850151825560209485019460019092019101610559565b508482101561059657868401515f19600387901b60f8161c191681555b50505050600190811b01905550565b83815260406020820152816040820152818360608301375f818301606090810191909152601f909201601f191601019291505056fea26469706673582212201463e2616a59dd3ebea48be8d3ef2e561aa9a6ed54641050c1fc2b3087c5eec964736f6c634300081c0033",
  "linkReferences": {},
  "deployedLinkReferences": {},
  "immutableReferences": {},
  "inputSourceName": "project/contracts/HubRegistry.sol",
  "buildInfoId": "solc-0_8_28-a08a15811b45016553836dc8eeff92c37cf4d848"
}