{
  "_format": "hh3-artifact-1",
  "contractName": "HubRegistry",
  "sourceName": "contracts/HubRegistry.sol",
  "abi": [
    {
      "inputs": [
        {
          "internalType": "address",
          "name": "_mailbox",
          "type": "address"
        }
      ],
      "stateMutability": "nonpayable",
      "type": "constructor"
    },
    {
      "anonymous": false,
      "inputs": [
        {
          "indexed": true,
          "internalType": "bytes32",
          "name": "logId",
          "type": "bytes32"
        },
        {
          "indexed": true,
          "internalType": "address",
          "name": "author",
          "type": "address"
        },
        {
          "indexed": false,
          "internalType": "bytes32",
          "name": "contentHash",
          "type": "bytes32"
        },
        {
          "indexed": false,
          "internalType": "string",
          "name": "metadata",
          "type": "string"
        }
      ],
      "name": "HubLogPushed",
      "type": "event"
    },
    {
      "anonymous": false,
      "inputs": [
        {
          "indexed": true,
          "internalType": "uint32",
          "name": "origin",
          "type": "uint32"
        },
        {
          "indexed": true,
          "internalType": "address",
          "name": "sender",
          "type": "address"
        },
        {
          "indexed": true,
          "internalType": "bytes32",
          "name": "logId",
          "type": "bytes32"
        }
      ],
      "name": "ReceiptRecorded",
      "type": "event"
    },
    {
      "inputs": [],
      "name": "admin",
      "outputs": [
        {
          "internalType": "address",
          "name": "",
          "type": "address"
        }
      ],
      "stateMutability": "view",
      "type": "function"
    },
    {
      "inputs": [
        {
          "internalType": "uint32",
          "name": "_origin",
          "type": "uint32"
        },
        {
          "internalType": "bytes32",
          "name": "_sender",
          "type": "bytes32"
        },
        {
          "internalType": "bytes",
          "name": "_messageBody",
          "type": "bytes"
        }
      ],
      "name": "handle",
      "outputs": [],
      "stateMutability": "nonpayable",
      "type": "function"
    },
    {
      "inputs": [
        {
          "internalType": "bytes32",
          "name": "",
          "type": "bytes32"
        }
      ],
      "name": "logs",
      "outputs": [
        {
          "internalType": "address",
          "name": "author",
          "type": "address"
        },
        {
          "internalType": "bytes32",
          "name": "contentHash",
          "type": "bytes32"
        },
        {
          "internalType": "uint256",
          "name": "timestamp",
          "type": "uint256"
        },
        {
          "internalType": "string",
          "name": "metadata",
          "type": "string"
        }
      ],
      "stateMutability": "view",
      "type": "function"
    },
    {
      "inputs": [],
      "name": "mailbox",
      "outputs": [
        {
          "internalType": "address",
          "name": "",
          "type": "address"
        }
      ],
      "stateMutability": "view",
      "type": "function"
    },
    {
      "inputs": [
        {
          "internalType": "bytes32",
          "name": "logId",
          "type": "bytes32"
        },
        {
          "internalType": "bytes32",
          "name": "contentHash",
          "type": "bytes32"
        },
        {
          "internalType": "string",
          "name": "metadata",
          "type": "string"
        }
      ],
      "name": "pushHubLog",
      "outputs": [],
      "stateMutability": "nonpayable",
      "type": "function"
    },
    {
      "inputs": [
        {
          "internalType": "bytes32",
          "name": "",
          "type": "bytes32"
        }
      ],
      "name": "seen",
      "outputs": [
        {
          "internalType": "bool",
          "name": "",
          "type": "bool"
        }
      ],
      "stateMutability": "view",
      "type": "function"
    },
    {
      "inputs": [
        {
          "internalType": "address",
          "name": "_admin",
          "type": "address"
        }
      ],
      "name": "setAdmin",
      "outputs": [],
      "stateMutability": "nonpayable",
      "type": "function"
    }
  ],
  "bytecode": "0x60a0604052348015600e575f5ffd5b50604051610aa7380380610aa7833981016040819052602b91604c565b6001600160a01b03166080525f80546001600160a01b031916331790556077565b5f60208284031215605b575f5ffd5b81516001600160a01b03811681146070575f5ffd5b9392505050565b608051610a116100965f395f818161011c01526102770152610a115ff3fe608060405234801561000f575f5ffd5b506004361061007a575f3560e01c80639a02b653116100585780639a02b653146100b9578063beeb3f34146100e5578063d5438eae14610117578063f851a44014610156575f5ffd5b8063095564b31461007e57806356d5d47514610093578063704b6c02146100a6575b5f5ffd5b61009161008c366004610602565b610168565b005b6100916100a1366004610651565b61026c565b6100916100b43660046106b0565b61049c565b6100cc6100c73660046106d2565b610502565b6040516100dc9493929190610717565b60405180910390f35b6101076100f33660046106d2565b60026020525f908152604090205460ff1681565b60405190151581526020016100dc565b61013e7f000000000000000000000000000000000000000000000000000000000000000081565b6040516001600160a01b0390911681526020016100dc565b5f5461013e906001600160a01b031681565b6040518060800160405280336001600160a01b0316815260200184815260200142815260200183838080601f0160208091040260200160405190810160405280939291908181526020018383808284375f92018290525093909452505086815260016020818152604092839020855181546001600160a01b0319166001600160a01b0390911617815590850151918101919091559083015160028201556060830151909150600382019061021c90826107e5565b50905050336001600160a01b0316847fba7f4852c21fb6d2fb258806c1c98fff345651b998b92ccf38e0e1444b9fea1b85858560405161025e939291906108a0565b60405180910390a350505050565b336001600160a01b037f000000000000000000000000000000000000000000000000000000000000000016146102de5760405162461bcd60e51b81526020600482015260126024820152710e6cadcc8cae440dcdee840dac2d2d8c4def60731b60448201526064015b60405180910390fd5b5f8080806102ee858701876108e5565b6040805163ffffffff8e1660208201529081018c905260608101859052939750919550935091505f9060800160408051601f1981840301815291815281516020928301205f818152600290935291205490915060ff161561037d5760405162461bcd60e51b81526020600482015260096024820152686475706c696361746560b81b60448201526064016102d5565b5f8181526002602081815260408084208054600160ff19909116811790915581516080810183526001600160a01b0388811682528185018b815242838601908152606084018c81528e8a529685905294909720825181546001600160a01b031916921691909117815595519186019190915590519284019290925551909190600382019061040b90826107e5565b50905050816001600160a01b0316857fba7f4852c21fb6d2fb258806c1c98fff345651b998b92ccf38e0e1444b9fea1b868660405161044b9291906109bb565b60405180910390a384886001600160a01b03168a63ffffffff167f7f411379ad567cfad86c494e316b05f2cc002e2cb24c46f8859b1021bf674ff760405160405180910390a4505050505050505050565b5f546001600160a01b031633146104e15760405162461bcd60e51b81526020600482015260096024820152683737ba1030b236b4b760b91b60448201526064016102d5565b5f80546001600160a01b0319166001600160a01b0392909216919091179055565b600160208190525f918252604090912080549181015460028201546003830180546001600160a01b03909516949293919261053c90610761565b80601f016020809104026020016040519081016040528092919081815260200182805461056890610761565b80156105b35780601f1061058a576101008083540402835291602001916105b3565b820191905f5260205f20905b81548152906001019060200180831161059657829003601f168201915b5050505050905084565b5f5f83601f8401126105cd575f5ffd5b50813567ffffffffffffffff8111156105e4575f5ffd5b6020830191508360208285010111156105fb575f5ffd5b9250929050565b5f5f5f5f60608587031215610615575f5ffd5b8435935060208501359250604085013567ffffffffffffffff811115610639575f5ffd5b610645878288016105bd565b95989497509550505050565b5f5f5f5f60608587031215610664575f5ffd5b843563ffffffff81168114610677575f5ffd5b935060208501359250604085013567ffffffffffffffff811115610639575f5ffd5b6001600160a01b03811681146106ad575f5ffd5b50565b5f602082840312156106c0575f5ffd5b81356106cb81610699565b9392505050565b5f602082840312156106e2575f5ffd5b5035919050565b5f81518084528060208401602086015e5f602082860101526020601f19601f83011685010191505092915050565b60018060a01b0385168152836020820152826040820152608060608201525f61074360808301846106e9565b9695505050505050565b634e487b7160e01b5f52604160045260245ffd5b600181811c9082168061077557607f821691505b60208210810361079357634e487b7160e01b5f52602260045260245ffd5b50919050565b601f8211156107e057805f5260205f20601f840160051c810160208510156107be5750805b601f840160051c820191505b818110156107dd575f81556001016107ca565b50505b505050565b815167ffffffffffffffff8111156107ff576107ff61074d565b6108138161080d8454610761565b84610799565b6020601f821160018114610845575f831561082e5750848201515b5f19600385901b1c1916600184901b1784556107dd565b5f84815260208120601f198516915b828110156108745787850151825560209485019460019092019101610854565b508482101561089157868401515f19600387901b60f8161c191681555b50505050600190811b01905550565b83815260406020820152816040820152818360608301375f818301606090810191909152601f909201601f1916010192915050565b80356108e081610699565b919050565b5f5f5f5f608085870312156108f8575f5ffd5b8435935060208501359250604085013567ffffffffffffffff81111561091c575f5ffd5b8501601f8101871361092c575f5ffd5b803567ffffffffffffffff8111156109465761094661074d565b604051601f8201601f19908116603f0116810167ffffffffffffffff811182821017156109755761097561074d565b60405281815282820160200189101561098c575f5ffd5b816020840160208301375f602083830101528094505050506109b0606086016108d5565b905092959194509250565b828152604060208201525f6109d360408301846106e9565b94935050505056fea26469706673582212207123536f3748f825f851ca25e0a449830a8217d85e3e9b740c469b5afcdc053764736f6c634300081c0033",
  "linkReferences": {},
  "deployedLinkReferences": {},
  "immutableReferences": {
    "4": [
      {
        "length": 32,
        "start": 284
      },
      {
        "length": 32,
        "start": 631
      }
    ]
  },
  "inputSourceName": "project/contracts/HubRegistry.sol",
  "buildInfoId": "solc-0_8_28-d978ebf9b0f7eda6bffd25f3eff4690d1f368792"
}