{
  "_format": "hh3-artifact-1",
  "contractName": "HubRegistry",
  "sourceName": "contracts/HubRegistry.sol",
  "abi": [
    {
      "inputs": [
        {
          "internalType": "address",
          "name": "_mailbox",
          "type": "address"
        }
      ],
      "stateMutability": "nonpayable",
      "type": "constructor"
    },
    {
      "anonymous": false,
      "inputs": [
        {
          "indexed": true,
          "internalType": "bytes32",
          "name": "logId",
          "type": "bytes32"
        },
        {
          "indexed": true,
          "internalType": "address",
          "name": "author",
          "type": "address"
        },
        {
          "indexed": false,
          "internalType": "bytes32",
          "name": "contentHash",
          "type": "bytes32"
        },
        {
          "indexed": false,
          "internalType": "string",
          "name": "metadata",
          "type": "string"
        }
      ],
      "name": "HubLogPushed",
      "type": "event"
    },
    {
      "anonymous": false,
      "inputs": [
        {
          "indexed": true,
          "internalType": "uint32",
          "name": "origin",
          "type": "uint32"
        },
        {
          "indexed": true,
          "internalType": "bytes32",
          "name": "logId",
          "type": "bytes32"
        },
        {
          "indexed": false,
          "internalType": "address",
          "name": "author",
          "type": "address"
        }
      ],
      "name": "OffchainReceiptRecorded",
      "type": "event"
    },
    {
      "anonymous": false,
      "inputs": [
        {
          "indexed": true,
          "internalType": "uint32",
          "name": "origin",
          "type": "uint32"
        },
        {
          "indexed": true,
          "internalType": "address",
          "name": "sender",
          "type": "address"
        },
        {
          "indexed": true,
          "internalType": "bytes32",
          "name": "logId",
          "type": "bytes32"
        }
      ],
      "name": "ReceiptRecorded",
      "type": "event"
    },
    {
      "inputs": [],
      "name": "admin",
      "outputs": [
        {
          "internalType": "address",
          "name": "",
          "type": "address"
        }
      ],
      "stateMutability": "view",
      "type": "function"
    },
    {
      "inputs": [
        {
          "internalType": "uint32",
          "name": "_origin",
          "type": "uint32"
        },
        {
          "internalType": "bytes32",
          "name": "_sender",
          "type": "bytes32"
        },
        {
          "internalType": "bytes",
          "name": "_messageBody",
          "type": "bytes"
        }
      ],
      "name": "handle",
      "outputs": [],
      "stateMutability": "nonpayable",
      "type": "function"
    },
    {
      "inputs": [
        {
          "internalType": "uint32",
          "name": "origin",
          "type": "uint32"
        },
        {
          "internalType": "bytes32",
          "name": "logId",
          "type": "bytes32"
        }
      ],
      "name": "hasOffchainReceipt",
      "outputs": [
        {
          "internalType": "bool",
          "name": "",
          "type": "bool"
        }
      ],
      "stateMutability": "view",
      "type": "function"
    },
    {
      "inputs": [
        {
          "internalType": "bytes32",
          "name": "",
          "type": "bytes32"
        }
      ],
      "name": "logs",
      "outputs": [
        {
          "internalType": "address",
          "name": "author",
          "type": "address"
        },
        {
          "internalType": "bytes32",
          "name": "contentHash",
          "type": "bytes32"
        },
        {
          "internalType": "uint256",
          "name": "timestamp",
          "type": "uint256"
        },
        {
          "internalType": "string",
          "name": "metadata",
          "type": "string"
        }
      ],
      "stateMutability": "view",
      "type": "function"
    },
    {
      "inputs": [],
      "name": "mailbox",
      "outputs": [
        {
          "internalType": "address",
          "name": "",
          "type": "address"
        }
      ],
      "stateMutability": "view",
      "type": "function"
    },
    {
      "inputs": [
        {
          "internalType": "bytes32",
          "name": "logId",
          "type": "bytes32"
        },
        {
          "internalType": "bytes32",
          "name": "contentHash",
          "type": "bytes32"
        },
        {
          "internalType": "string",
          "name": "metadata",
          "type": "string"
        }
      ],
      "name": "pushHubLog",
      "outputs": [],
      "stateMutability": "nonpayable",
      "type": "function"
    },
    {
      "inputs": [
        {
          "internalType": "uint32",
          "name": "origin",
          "type": "uint32"
        },
        {
          "internalType": "bytes32",
          "name": "logId",
          "type": "bytes32"
        },
        {
          "internalType": "bytes32",
          "name": "contentHash",
          "type": "bytes32"
        },
        {
          "internalType": "string",
          "name": "metadata",
          "type": "string"
        },
        {
          "internalType": "address",
          "name": "author",
          "type": "address"
        }
      ],
      "name": "recordReceiptFromOffchain",
      "outputs": [],
      "stateMutability": "nonpayable",
      "type": "function"
    },
    {
      "inputs": [
        {
          "internalType": "bytes32",
          "name": "",
          "type": "bytes32"
        }
      ],
      "name": "seen",
      "outputs": [
        {
          "internalType": "bool",
          "name": "",
          "type": "bool"
        }
      ],
      "stateMutability": "view",
      "type": "function"
    },
    {
      "inputs": [
        {
          "internalType": "address",
          "name": "_admin",
          "type": "address"
        }
      ],
      "name": "setAdmin",
      "outputs": [],
      "stateMutability": "nonpayable",
      "type": "function"
    }
  ],
  "bytecode": "0x60a0604052348015600e575f5ffd5b50604051610deb380380610deb833981016040819052602b91604c565b6001600160a01b03166080525f80546001600160a01b031916331790556077565b5f60208284031215605b575f5ffd5b81516001600160a01b03811681146070575f5ffd5b9392505050565b608051610d556100965f395f8181610196015261051a0152610d555ff3fe608060405234801561000f575f5ffd5b5060043610610090575f3560e01c8063704b6c0211610063578063704b6c02146101395780639a02b6531461014c578063beeb3f341461016f578063d5438eae14610191578063f851a440146101d0575f5ffd5b8063095564b3146100945780632da7e8cd146100a957806340bb73b21461011357806356d5d47514610126575b5f5ffd5b6100a76100a23660046108a0565b6101e2565b005b6100fe6100b7366004610907565b6040805163ffffffff9390931660208085019190915283820192909252805180840382018152606090930181528251928201929092205f9081526003909152205460ff1690565b60405190151581526020015b60405180910390f35b6100a7610121366004610946565b6102e6565b6100a76101343660046109bb565b61050f565b6100a76101473660046109f9565b61073a565b61015f61015a366004610a1b565b6107a0565b60405161010a9493929190610a60565b6100fe61017d366004610a1b565b60026020525f908152604090205460ff1681565b6101b87f000000000000000000000000000000000000000000000000000000000000000081565b6040516001600160a01b03909116815260200161010a565b5f546101b8906001600160a01b031681565b6040518060800160405280336001600160a01b0316815260200184815260200142815260200183838080601f0160208091040260200160405190810160405280939291908181526020018383808284375f92018290525093909452505086815260016020818152604092839020855181546001600160a01b0319166001600160a01b039091161781559085015191810191909155908301516002820155606083015190915060038201906102969082610b2e565b50905050336001600160a01b0316847fba7f4852c21fb6d2fb258806c1c98fff345651b998b92ccf38e0e1444b9fea1b8585856040516102d893929190610be9565b60405180910390a350505050565b5f546001600160a01b031633146103305760405162461bcd60e51b81526020600482015260096024820152683737ba1030b236b4b760b91b60448201526064015b60405180910390fd5b6040805163ffffffff881660208201529081018690525f9060600160408051601f1981840301815291815281516020928301205f818152600390935291205490915060ff16156103ae5760405162461bcd60e51b81526020600482015260096024820152686475706c696361746560b81b6044820152606401610327565b5f81815260036020908152604091829020805460ff1916600117905581516080810183526001600160a01b038516815280820188905242818401528251601f870183900483028101830190935285835291606083019187908790819084018382808284375f92018290525093909452505088815260016020818152604092839020855181546001600160a01b0319166001600160a01b039091161781559085015191810191909155908301516002820155606083015190915060038201906104769082610b2e565b50905050816001600160a01b0316867fba7f4852c21fb6d2fb258806c1c98fff345651b998b92ccf38e0e1444b9fea1b8787876040516104b893929190610be9565b60405180910390a36040516001600160a01b0383168152869063ffffffff8916907fcabadc27aad6ab83369f0fc55786408b80b9180353e9a547c184f493bab385449060200160405180910390a350505050505050565b336001600160a01b037f0000000000000000000000000000000000000000000000000000000000000000161461057c5760405162461bcd60e51b81526020600482015260126024820152710e6cadcc8cae440dcdee840dac2d2d8c4def60731b6044820152606401610327565b5f80808061058c85870187610c29565b6040805163ffffffff8e1660208201529081018c905260608101859052939750919550935091505f9060800160408051601f1981840301815291815281516020928301205f818152600290935291205490915060ff161561061b5760405162461bcd60e51b81526020600482015260096024820152686475706c696361746560b81b6044820152606401610327565b5f8181526002602081815260408084208054600160ff19909116811790915581516080810183526001600160a01b0388811682528185018b815242838601908152606084018c81528e8a529685905294909720825181546001600160a01b03191692169190911781559551918601919091559051928401929092555190919060038201906106a99082610b2e565b50905050816001600160a01b0316857fba7f4852c21fb6d2fb258806c1c98fff345651b998b92ccf38e0e1444b9fea1b86866040516106e9929190610cff565b60405180910390a384886001600160a01b03168a63ffffffff167f7f411379ad567cfad86c494e316b05f2cc002e2cb24c46f8859b1021bf674ff760405160405180910390a4505050505050505050565b5f546001600160a01b0316331461077f5760405162461bcd60e51b81526020600482015260096024820152683737ba1030b236b4b760b91b6044820152606401610327565b5f80546001600160a01b0319166001600160a01b0392909216919091179055565b600160208190525f918252604090912080549181015460028201546003830180546001600160a01b0390951694929391926107da90610aaa565b80601f016020809104026020016040519081016040528092919081815260200182805461080690610aaa565b80156108515780601f1061082857610100808354040283529160200191610851565b820191905f5260205f20905b81548152906001019060200180831161083457829003601f168201915b5050505050905084565b5f5f83601f84011261086b575f5ffd5b50813567ffffffffffffffff811115610882575f5ffd5b602083019150836020828501011115610899575f5ffd5b9250929050565b5f5f5f5f606085870312156108b3575f5ffd5b8435935060208501359250604085013567ffffffffffffffff8111156108d7575f5ffd5b6108e38782880161085b565b95989497509550505050565b803563ffffffff81168114610902575f5ffd5b919050565b5f5f60408385031215610918575f5ffd5b610921836108ef565b946020939093013593505050565b6001600160a01b0381168114610943575f5ffd5b50565b5f5f5f5f5f5f60a0878903121561095b575f5ffd5b610964876108ef565b95506020870135945060408701359350606087013567ffffffffffffffff81111561098d575f5ffd5b61099989828a0161085b565b90945092505060808701356109ad8161092f565b809150509295509295509295565b5f5f5f5f606085870312156109ce575f5ffd5b6109d7856108ef565b935060208501359250604085013567ffffffffffffffff8111156108d7575f5ffd5b5f60208284031215610a09575f5ffd5b8135610a148161092f565b9392505050565b5f60208284031215610a2b575f5ffd5b5035919050565b5f81518084528060208401602086015e5f602082860101526020601f19601f83011685010191505092915050565b60018060a01b0385168152836020820152826040820152608060608201525f610a8c6080830184610a32565b9695505050505050565b634e487b7160e01b5f52604160045260245ffd5b600181811c90821680610abe57607f821691505b602082108103610adc57634e487b7160e01b5f52602260045260245ffd5b50919050565b601f821115610b2957805f5260205f20601f840160051c81016020851015610b075750805b601f840160051c820191505b81811015610b26575f8155600101610b13565b50505b505050565b815167ffffffffffffffff811115610b4857610b48610a96565b610b5c81610b568454610aaa565b84610ae2565b6020601f821160018114610b8e575f8315610b775750848201515b5f19600385901b1c1916600184901b178455610b26565b5f84815260208120601f198516915b82811015610bbd5787850151825560209485019460019092019101610b9d565b5084821015610bda57868401515f19600387901b60f8161c191681555b50505050600190811b01905550565b83815260406020820152816040820152818360608301375f818301606090810191909152601f909201601f1916010192915050565b80356109028161092f565b5f5f5f5f60808587031215610c3c575f5ffd5b8435935060208501359250604085013567ffffffffffffffff811115610c60575f5ffd5b8501601f81018713610c70575f5ffd5b803567ffffffffffffffff811115610c8a57610c8a610a96565b604051601f8201601f19908116603f0116810167ffffffffffffffff81118282101715610cb957610cb9610a96565b604052818152828201602001891015610cd0575f5ffd5b816020840160208301375f60208383010152809450505050610cf460608601610c1e565b905092959194509250565b828152604060208201525f610d176040830184610a32565b94935050505056fea264697066735822122058f769d484dab382f1b9d1e4a62207b9a531545ea96c167b86dfa0c7e041d2dc64736f6c634300081c0033",
  "linkReferences": {},
  "deployedLinkReferences": {},
  "immutableReferences": {
    "4": [
      {
        "length": 32,
        "start": 406
      },
      {
        "length": 32,
        "start": 1306
      }
    ]
  },
  "inputSourceName": "project/contracts/HubRegistry.sol",
  "buildInfoId": "solc-0_8_28-8da949347a2825f5420671b0c6569a197986ffa2"
}