{
  "_format": "hh3-artifact-1",
  "contractName": "SpokeRegistry",
  "sourceName": "contracts/SpokeRegistry.sol",
  "abi": [
    {
      "inputs": [
        {
          "internalType": "address",
          "name": "_mailbox",
          "type": "address"
        },
        {
          "internalType": "uint32",
          "name": "_flowDomain",
          "type": "uint32"
        },
        {
          "internalType": "address",
          "name": "_hubRecipient",
          "type": "address"
        }
      ],
      "stateMutability": "nonpayable",
      "type": "constructor"
    },
    {
      "anonymous": false,
      "inputs": [
        {
          "indexed": true,
          "internalType": "bytes32",
          "name": "logId",
          "type": "bytes32"
        },
        {
          "indexed": false,
          "internalType": "bytes32",
          "name": "messageId",
          "type": "bytes32"
        },
        {
          "indexed": false,
          "internalType": "uint32",
          "name": "flowDomain",
          "type": "uint32"
        },
        {
          "indexed": false,
          "internalType": "address",
          "name": "hubRecipient",
          "type": "address"
        }
      ],
      "name": "SpokeDispatched",
      "type": "event"
    },
    {
      "anonymous": false,
      "inputs": [
        {
          "indexed": true,
          "internalType": "bytes32",
          "name": "logId",
          "type": "bytes32"
        },
        {
          "indexed": true,
          "internalType": "address",
          "name": "author",
          "type": "address"
        },
        {
          "indexed": false,
          "internalType": "bytes32",
          "name": "contentHash",
          "type": "bytes32"
        },
        {
          "indexed": false,
          "internalType": "string",
          "name": "metadata",
          "type": "string"
        }
      ],
      "name": "SpokeLogPushed",
      "type": "event"
    },
    {
      "inputs": [],
      "name": "admin",
      "outputs": [
        {
          "internalType": "address",
          "name": "",
          "type": "address"
        }
      ],
      "stateMutability": "view",
      "type": "function"
    },
    {
      "inputs": [],
      "name": "flowDomain",
      "outputs": [
        {
          "internalType": "uint32",
          "name": "",
          "type": "uint32"
        }
      ],
      "stateMutability": "view",
      "type": "function"
    },
    {
      "inputs": [],
      "name": "hubRecipient",
      "outputs": [
        {
          "internalType": "address",
          "name": "",
          "type": "address"
        }
      ],
      "stateMutability": "view",
      "type": "function"
    },
    {
      "inputs": [
        {
          "internalType": "bytes32",
          "name": "",
          "type": "bytes32"
        }
      ],
      "name": "logs",
      "outputs": [
        {
          "internalType": "address",
          "name": "author",
          "type": "address"
        },
        {
          "internalType": "bytes32",
          "name": "contentHash",
          "type": "bytes32"
        },
        {
          "internalType": "uint256",
          "name": "timestamp",
          "type": "uint256"
        },
        {
          "internalType": "string",
          "name": "metadata",
          "type": "string"
        }
      ],
      "stateMutability": "view",
      "type": "function"
    },
    {
      "inputs": [],
      "name": "mailbox",
      "outputs": [
        {
          "internalType": "contract IMailbox",
          "name": "",
          "type": "address"
        }
      ],
      "stateMutability": "view",
      "type": "function"
    },
    {
      "inputs": [
        {
          "internalType": "bytes32",
          "name": "logId",
          "type": "bytes32"
        },
        {
          "internalType": "bytes32",
          "name": "contentHash",
          "type": "bytes32"
        },
        {
          "internalType": "string",
          "name": "metadata",
          "type": "string"
        }
      ],
      "name": "pushSpokeLog",
      "outputs": [],
      "stateMutability": "payable",
      "type": "function"
    },
    {
      "inputs": [
        {
          "internalType": "address",
          "name": "_mailbox",
          "type": "address"
        },
        {
          "internalType": "uint32",
          "name": "_flowDomain",
          "type": "uint32"
        },
        {
          "internalType": "address",
          "name": "_hubRecipient",
          "type": "address"
        }
      ],
      "name": "setHyperlane",
      "outputs": [],
      "stateMutability": "nonpayable",
      "type": "function"
    }
  ],
  "bytecode": "0x6080604052348015600e575f5ffd5b5060405161097f38038061097f833981016040819052602b91609b565b5f80546001600160a01b031990811633179091556001805463ffffffff909416600160a01b026001600160c01b03199094166001600160a01b0395861617939093179092556002805491909316911617905560df565b80516001600160a01b03811681146096575f5ffd5b919050565b5f5f5f6060848603121560ac575f5ffd5b60b3846081565b9250602084015163ffffffff8116811460ca575f5ffd5b915060d6604085016081565b90509250925092565b610893806100ec5f395ff3fe60806040526004361061006d575f3560e01c80639a02b6531161004c5780639a02b65314610106578063c533006d14610135578063d5438eae14610148578063f851a44014610167575f5ffd5b80623dad181461007157806335b370551461009257806383ee5073146100ce575b5f5ffd5b34801561007c575f5ffd5b5061009061008b36600461050b565b610185565b005b34801561009d575f5ffd5b506002546100b1906001600160a01b031681565b6040516001600160a01b0390911681526020015b60405180910390f35b3480156100d9575f5ffd5b506001546100f190600160a01b900463ffffffff1681565b60405163ffffffff90911681526020016100c5565b348015610111575f5ffd5b50610125610120366004610555565b610219565b6040516100c5949392919061059a565b6100906101433660046105d0565b6102d4565b348015610153575f5ffd5b506001546100b1906001600160a01b031681565b348015610172575f5ffd5b505f546100b1906001600160a01b031681565b5f546001600160a01b031633146101ce5760405162461bcd60e51b81526020600482015260096024820152683737ba1030b236b4b760b91b604482015260640160405180910390fd5b6001805463ffffffff909316600160a01b026001600160c01b03199093166001600160a01b03948516179290921790915560028054919092166001600160a01b031991909116179055565b600360208190525f918252604090912080546001820154600283015493830180546001600160a01b0390931694919391926102539061064c565b80601f016020809104026020016040519081016040528092919081815260200182805461027f9061064c565b80156102ca5780601f106102a1576101008083540402835291602001916102ca565b820191905f5260205f20905b8154815290600101906020018083116102ad57829003601f168201915b5050505050905084565b6040518060800160405280336001600160a01b0316815260200184815260200142815260200183838080601f0160208091040260200160405190810160405280939291908181526020018383808284375f92018290525093909452505086815260036020818152604092839020855181546001600160a01b0319166001600160a01b03909116178155908501516001820155918401516002830155606084015191925082019061038490826106e4565b50905050336001600160a01b0316847f97e4e96f108207ef62f96a4456401d4b7ef3a5fcffb72eef0dfd3ce754d725008585856040516103c6939291906107c7565b60405180910390a35f84848484336040516020016103e89594939291906107e9565b60408051808303601f190181529082905260025460015463fa31de0160e01b84529193506001600160a01b03908116925f929182169163fa31de0191349161044591600160a01b90910463ffffffff169087908990600401610822565b60206040518083038185885af1158015610461573d5f5f3e3d5ffd5b50505050506040513d601f19601f820116820180604052508101906104869190610846565b60015460025460408051848152600160a01b90930463ffffffff1660208401526001600160a01b039091169082015290915087907f7a5bc27f415ff9704a9cabeb7da18387809657e9b77d1c929a12c7bff4741f4d9060600160405180910390a250505050505050565b80356001600160a01b0381168114610506575f5ffd5b919050565b5f5f5f6060848603121561051d575f5ffd5b610526846104f0565b9250602084013563ffffffff8116811461053e575f5ffd5b915061054c604085016104f0565b90509250925092565b5f60208284031215610565575f5ffd5b5035919050565b5f81518084528060208401602086015e5f602082860101526020601f19601f83011685010191505092915050565b60018060a01b0385168152836020820152826040820152608060608201525f6105c6608083018461056c565b9695505050505050565b5f5f5f5f606085870312156105e3575f5ffd5b8435935060208501359250604085013567ffffffffffffffff811115610607575f5ffd5b8501601f81018713610617575f5ffd5b803567ffffffffffffffff81111561062d575f5ffd5b87602082840101111561063e575f5ffd5b949793965060200194505050565b600181811c9082168061066057607f821691505b60208210810361067e57634e487b7160e01b5f52602260045260245ffd5b50919050565b634e487b7160e01b5f52604160045260245ffd5b601f8211156106df57805f5260205f20601f840160051c810160208510156106bd5750805b601f840160051c820191505b818110156106dc575f81556001016106c9565b50505b505050565b815167ffffffffffffffff8111156106fe576106fe610684565b6107128161070c845461064c565b84610698565b6020601f821160018114610744575f831561072d5750848201515b5f19600385901b1c1916600184901b1784556106dc565b5f84815260208120601f198516915b828110156107735787850151825560209485019460019092019101610753565b508482101561079057868401515f19600387901b60f8161c191681555b50505050600190811b01905550565b81835281816020850137505f828201602090810191909152601f909101601f19169091010190565b838152604060208201525f6107e060408301848661079f565b95945050505050565b858152846020820152608060408201525f61080860808301858761079f565b905060018060a01b03831660608301529695505050505050565b63ffffffff84168152826020820152606060408201525f6107e0606083018461056c565b5f60208284031215610856575f5ffd5b505191905056fea2646970667358221220f8748fc7448436ce42704e80b84425e8f56acf22e74b27b1dcd3728a4823159464736f6c634300081c0033",
  "linkReferences": {},
  "deployedLinkReferences": {},
  "immutableReferences": {},
  "inputSourceName": "project/contracts/SpokeRegistry.sol",
  "buildInfoId": "solc-0_8_28-7598c961eeb09dab3bf16caa8ad42630915d15aa"
}