{
  "_format": "hh3-artifact-1",
  "contractName": "SpokeRegistry",
  "sourceName": "contracts/SpokeRegistry.sol",
  "abi": [
    {
      "anonymous": false,
      "inputs": [
        {
          "indexed": true,
          "internalType": "bytes32",
          "name": "logId",
          "type": "bytes32"
        },
        {
          "indexed": true,
          "internalType": "address",
          "name": "author",
          "type": "address"
        },
        {
          "indexed": false,
          "internalType": "bytes32",
          "name": "contentHash",
          "type": "bytes32"
        },
        {
          "indexed": false,
          "internalType": "string",
          "name": "metadata",
          "type": "string"
        }
      ],
      "name": "SpokeLogPushed",
      "type": "event"
    },
    {
      "inputs": [
        {
          "internalType": "bytes32",
          "name": "",
          "type": "bytes32"
        }
      ],
      "name": "logs",
      "outputs": [
        {
          "internalType": "address",
          "name": "author",
          "type": "address"
        },
        {
          "internalType": "bytes32",
          "name": "contentHash",
          "type": "bytes32"
        },
        {
          "internalType": "uint256",
          "name": "timestamp",
          "type": "uint256"
        },
        {
          "internalType": "string",
          "name": "metadata",
          "type": "string"
        }
      ],
      "stateMutability": "view",
      "type": "function"
    },
    {
      "inputs": [
        {
          "internalType": "bytes32",
          "name": "logId",
          "type": "bytes32"
        },
        {
          "internalType": "bytes32",
          "name": "contentHash",
          "type": "bytes32"
        },
        {
          "internalType": "string",
          "name": "metadata",
          "type": "string"
        }
      ],
      "name": "pushSpokeLog",
      "outputs": [],
      "stateMutability": "nonpayable",
      "type": "function"
    }
  ],
  "bytecode": "0x6080604052348015600e575f5ffd5b506104d68061001c5f395ff3fe608060405234801561000f575f5ffd5b5060043610610034575f3560e01c80639a02b65314610038578063c533006d14610064575b5f5ffd5b61004b610046366004610233565b610079565b60405161005b949392919061024a565b60405180910390f35b61007761007236600461029c565b610133565b005b5f6020819052908152604090208054600182015460028301546003840180546001600160a01b039094169492939192916100b290610318565b80601f01602080910402602001604051908101604052809291908181526020018280546100de90610318565b80156101295780601f1061010057610100808354040283529160200191610129565b820191905f5260205f20905b81548152906001019060200180831161010c57829003601f168201915b5050505050905084565b6040518060800160405280336001600160a01b0316815260200184815260200142815260200183838080601f0160208091040260200160405190810160405280939291908181526020018383808284375f9201829052509390945250508681526020818152604091829020845181546001600160a01b0319166001600160a01b03909116178155908401516001820155908301516002820155606083015190915060038201906101e390826103b0565b50905050336001600160a01b0316847f97e4e96f108207ef62f96a4456401d4b7ef3a5fcffb72eef0dfd3ce754d725008585856040516102259392919061046b565b60405180910390a350505050565b5f60208284031215610243575f5ffd5b5035919050565b60018060a01b0385168152836020820152826040820152608060608201525f8251806080840152806020850160a085015e5f60a0828501015260a0601f19601f83011684010191505095945050505050565b5f5f5f5f606085870312156102af575f5ffd5b8435935060208501359250604085013567ffffffffffffffff8111156102d3575f5ffd5b8501601f810187136102e3575f5ffd5b803567ffffffffffffffff8111156102f9575f5ffd5b87602082840101111561030a575f5ffd5b949793965060200194505050565b600181811c9082168061032c57607f821691505b60208210810361034a57634e487b7160e01b5f52602260045260245ffd5b50919050565b634e487b7160e01b5f52604160045260245ffd5b601f8211156103ab57805f5260205f20601f840160051c810160208510156103895750805b601f840160051c820191505b818110156103a8575f8155600101610395565b50505b505050565b815167ffffffffffffffff8111156103ca576103ca610350565b6103de816103d88454610318565b84610364565b6020601f821160018114610410575f83156103f95750848201515b5f19600385901b1c1916600184901b1784556103a8565b5f84815260208120601f198516915b8281101561043f578785015182556020948501946001909201910161041f565b508482101561045c57868401515f19600387901b60f8161c191681555b50505050600190811b01905550565b83815260406020820152816040820152818360608301375f818301606090810191909152601f909201601f191601019291505056fea2646970667358221220b6cefd765d6967042d29adeb4079fa274165843e48af0e4c200d2ddba077411c64736f6c634300081c0033",
  "linkReferences": {},
  "deployedLinkReferences": {},
  "immutableReferences": {},
  "inputSourceName": "project/contracts/SpokeRegistry.sol",
  "buildInfoId": "solc-0_8_28-522b4b22aba265e48c4e29c03ff8f73d200ed4e9"
}